{
  "contractName": "ERC725XInit",
  "abi": [
    {
      "anonymous": false,
      "inputs": [
        {
          "indexed": true,
          "internalType": "address",
          "name": "contractAddress",
          "type": "address"
        }
      ],
      "name": "ContractCreated",
      "type": "event"
    },
    {
      "anonymous": false,
      "inputs": [
        {
          "indexed": true,
          "internalType": "uint256",
          "name": "_operation",
          "type": "uint256"
        },
        {
          "indexed": true,
          "internalType": "address",
          "name": "_to",
          "type": "address"
        },
        {
          "indexed": true,
          "internalType": "uint256",
          "name": "_value",
          "type": "uint256"
        },
        {
          "indexed": false,
          "internalType": "bytes",
          "name": "_data",
          "type": "bytes"
        }
      ],
      "name": "Executed",
      "type": "event"
    },
    {
      "anonymous": false,
      "inputs": [
        {
          "indexed": true,
          "internalType": "address",
          "name": "previousOwner",
          "type": "address"
        },
        {
          "indexed": true,
          "internalType": "address",
          "name": "newOwner",
          "type": "address"
        }
      ],
      "name": "OwnershipTransferred",
      "type": "event"
    },
    {
      "inputs": [],
      "name": "owner",
      "outputs": [
        {
          "internalType": "address",
          "name": "",
          "type": "address"
        }
      ],
      "stateMutability": "view",
      "type": "function"
    },
    {
      "inputs": [],
      "name": "renounceOwnership",
      "outputs": [],
      "stateMutability": "nonpayable",
      "type": "function"
    },
    {
      "inputs": [
        {
          "internalType": "bytes4",
          "name": "interfaceId",
          "type": "bytes4"
        }
      ],
      "name": "supportsInterface",
      "outputs": [
        {
          "internalType": "bool",
          "name": "",
          "type": "bool"
        }
      ],
      "stateMutability": "view",
      "type": "function"
    },
    {
      "inputs": [
        {
          "internalType": "address",
          "name": "newOwner",
          "type": "address"
        }
      ],
      "name": "transferOwnership",
      "outputs": [],
      "stateMutability": "nonpayable",
      "type": "function"
    },
    {
      "inputs": [
        {
          "internalType": "address",
          "name": "_newOwner",
          "type": "address"
        }
      ],
      "name": "initialize",
      "outputs": [],
      "stateMutability": "nonpayable",
      "type": "function"
    },
    {
      "inputs": [
        {
          "internalType": "uint256",
          "name": "_operation",
          "type": "uint256"
        },
        {
          "internalType": "address",
          "name": "_to",
          "type": "address"
        },
        {
          "internalType": "uint256",
          "name": "_value",
          "type": "uint256"
        },
        {
          "internalType": "bytes",
          "name": "_data",
          "type": "bytes"
        }
      ],
      "name": "execute",
      "outputs": [
        {
          "internalType": "bytes",
          "name": "result",
          "type": "bytes"
        }
      ],
      "stateMutability": "payable",
      "type": "function"
    }
  ],
  "bytecode": "0x608060405234801561001057600080fd5b50611e46806100206000396000f3fe6080604052600436106100555760003560e01c806301ffc9a71461005a57806344c028fe14610097578063715018a6146100c75780638da5cb5b146100de578063c4d66de814610109578063f2fde38b14610132575b600080fd5b34801561006657600080fd5b50610081600480360381019061007c91906111e2565b61015b565b60405161008e9190611608565b60405180910390f35b6100b160048036038101906100ac919061124c565b6101d3565b6040516100be9190611647565b60405180910390f35b3480156100d357600080fd5b506100dc610269565b005b3480156100ea57600080fd5b506100f36102f1565b60405161010091906115ed565b60405180910390f35b34801561011557600080fd5b50610130600480360381019061012b91906111b9565b61031a565b005b34801561013e57600080fd5b50610159600480360381019061015491906111b9565b610466565b005b60006101668261055e565b806101cc575060016000837bffffffffffffffffffffffffffffffffffffffffffffffffffffffff19167bffffffffffffffffffffffffffffffffffffffffffffffffffffffff1916815260200190815260200160002060009054906101000a900460ff165b9050919050565b60606101dd6105c8565b73ffffffffffffffffffffffffffffffffffffffff166101fb6102f1565b73ffffffffffffffffffffffffffffffffffffffff1614610251576040517f08c379a0000000000000000000000000000000000000000000000000000000008152600401610248906117ab565b60405180910390fd5b61025e86868686866105d0565b905095945050505050565b6102716105c8565b73ffffffffffffffffffffffffffffffffffffffff1661028f6102f1565b73ffffffffffffffffffffffffffffffffffffffff16146102e5576040517f08c379a00000000000000000000000000000000000000000000000000000000081526004016102dc906117ab565b60405180910390fd5b6102ef600061098b565b565b60008060009054906101000a900473ffffffffffffffffffffffffffffffffffffffff16905090565b600260019054906101000a900460ff16806103425750600260009054906101000a900460ff16155b610381576040517f08c379a00000000000000000000000000000000000000000000000000000000081526004016103789061172b565b60405180910390fd5b6000600260019054906101000a900460ff1615905080156103d3576001600260016101000a81548160ff0219169083151502179055506001600260006101000a81548160ff0219169083151502179055505b6103db6102f1565b73ffffffffffffffffffffffffffffffffffffffff168273ffffffffffffffffffffffffffffffffffffffff16146104175761041682610a4f565b5b6104407f44c028fe00000000000000000000000000000000000000000000000000000000610ac6565b8015610462576000600260016101000a81548160ff0219169083151502179055505b5050565b61046e6105c8565b73ffffffffffffffffffffffffffffffffffffffff1661048c6102f1565b73ffffffffffffffffffffffffffffffffffffffff16146104e2576040517f08c379a00000000000000000000000000000000000000000000000000000000081526004016104d9906117ab565b60405180910390fd5b600073ffffffffffffffffffffffffffffffffffffffff168173ffffffffffffffffffffffffffffffffffffffff161415610552576040517f08c379a0000000000000000000000000000000000000000000000000000000008152600401610549906116cb565b60405180910390fd5b61055b8161098b565b50565b60007f01ffc9a7000000000000000000000000000000000000000000000000000000007bffffffffffffffffffffffffffffffffffffffffffffffffffffffff1916827bffffffffffffffffffffffffffffffffffffffffffffffffffffffff1916149050919050565b600033905090565b6060838573ffffffffffffffffffffffffffffffffffffffff16877f1f920dbda597d7bf95035464170fa58d0a4b57f13a1c315ace6793b9f63688b8868660405161061c929190611623565b60405180910390a460006109c45a610634919061193a565b905060008714156106965761068f868686868080601f016020809104026020016040519081016040528093929190818152602001838380828437600081840152601f19601f8201169050808301925050505050505084610b9b565b9150610981565b60018714156107775760006106a96102f1565b90506106fa8786868080601f016020809104026020016040519081016040528093929190818152602001838380828437600081840152601f19601f8201169050808301925050505050505084610c86565b92508073ffffffffffffffffffffffffffffffffffffffff1661071b6102f1565b73ffffffffffffffffffffffffffffffffffffffff1614610771576040517f08c379a00000000000000000000000000000000000000000000000000000000081526004016107689061180b565b60405180910390fd5b50610980565b60038714156107fa5760006107d08686868080601f016020809104026020016040519081016040528093929190818152602001838380828437600081840152601f19601f82011690508083019250505050505050610d6d565b9050806040516020016107e391906115bb565b60405160208183030381529060405292505061097f565b600287141561094357600061086285858080601f016020809104026020016040519081016040528093929190818152602001838380828437600081840152601f19601f8201169050808301925050505050505060208787905061085d919061193a565b610e32565b905060006108c586868080601f016020809104026020016040519081016040528093929190818152602001838380828437600081840152601f19601f8201169050808301925050505050505060006020898990506108c0919061193a565b610e99565b905060006108d4888484610fb7565b9050806040516020016108e791906115bb565b60405160208183030381529060405294508073ffffffffffffffffffffffffffffffffffffffff167fcf78cf0d6f3d8371e1075c69c492ab4ec5d8cf23a1a239b6a51a1d00be7ca31260405160405180910390a250505061097e565b6040517f08c379a0000000000000000000000000000000000000000000000000000000008152600401610975906117cb565b60405180910390fd5b5b5b5b5095945050505050565b60008060009054906101000a900473ffffffffffffffffffffffffffffffffffffffff169050816000806101000a81548173ffffffffffffffffffffffffffffffffffffffff021916908373ffffffffffffffffffffffffffffffffffffffff1602179055508173ffffffffffffffffffffffffffffffffffffffff168173ffffffffffffffffffffffffffffffffffffffff167f8be0079c531659141344cd1fd0a4f28419497f9722a3daafe3b4186f6b6457e060405160405180910390a35050565b600060149054906101000a900460ff1615610a9f576040517f08c379a0000000000000000000000000000000000000000000000000000000008152600401610a96906116ab565b60405180910390fd5b6001600060146101000a81548160ff021916908315150217905550610ac38161098b565b50565b63ffffffff60e01b817bffffffffffffffffffffffffffffffffffffffffffffffffffffffff19161415610b2f576040517f08c379a0000000000000000000000000000000000000000000000000000000008152600401610b26906116eb565b60405180910390fd5b6001806000837bffffffffffffffffffffffffffffffffffffffffffffffffffffffff19167bffffffffffffffffffffffffffffffffffffffffffffffffffffffff1916815260200190815260200160002060006101000a81548160ff02191690831515021790555050565b60606000808673ffffffffffffffffffffffffffffffffffffffff16848787604051610bc791906115d6565b600060405180830381858888f193505050503d8060008114610c05576040519150601f19603f3d011682016040523d82523d6000602084013e610c0a565b606091505b509150915081610c7957604481511015610c2357600080fd5b60048101905080806020019051810190610c3d919061120b565b6040517f08c379a0000000000000000000000000000000000000000000000000000000008152600401610c709190611669565b60405180910390fd5b8092505050949350505050565b60606000808573ffffffffffffffffffffffffffffffffffffffff168486604051610cb191906115d6565b6000604051808303818686f4925050503d8060008114610ced576040519150601f19603f3d011682016040523d82523d6000602084013e610cf2565b606091505b509150915081610d6157604481511015610d0b57600080fd5b60048101905080806020019051810190610d25919061120b565b6040517f08c379a0000000000000000000000000000000000000000000000000000000008152600401610d589190611669565b60405180910390fd5b80925050509392505050565b600081516020830184f09050600073ffffffffffffffffffffffffffffffffffffffff168173ffffffffffffffffffffffffffffffffffffffff161415610de9576040517f08c379a0000000000000000000000000000000000000000000000000000000008152600401610de09061176b565b60405180910390fd5b8073ffffffffffffffffffffffffffffffffffffffff167fcf78cf0d6f3d8371e1075c69c492ab4ec5d8cf23a1a239b6a51a1d00be7ca31260405160405180910390a292915050565b6000602082610e4191906118e4565b83511015610e84576040517f08c379a0000000000000000000000000000000000000000000000000000000008152600401610e7b9061178b565b60405180910390fd5b60008260208501015190508091505092915050565b606081601f83610ea991906118e4565b1015610eea576040517f08c379a0000000000000000000000000000000000000000000000000000000008152600401610ee19061170b565b60405180910390fd5b8183610ef691906118e4565b84511015610f39576040517f08c379a0000000000000000000000000000000000000000000000000000000008152600401610f30906117eb565b60405180910390fd5b6060821560008114610f5a5760405191506000825260208201604052610fab565b6040519150601f8416801560200281840101858101878315602002848b0101015b81831015610f985780518352602083019250602081019050610f7b565b50868552601f19601f8301166040525050505b50809150509392505050565b60008084471015610ffd576040517f08c379a0000000000000000000000000000000000000000000000000000000008152600401610ff49061182b565b60405180910390fd5b600083511415611042576040517f08c379a00000000000000000000000000000000000000000000000000000000081526004016110399061168b565b60405180910390fd5b8383516020850187f59050600073ffffffffffffffffffffffffffffffffffffffff168173ffffffffffffffffffffffffffffffffffffffff1614156110bd576040517f08c379a00000000000000000000000000000000000000000000000000000000081526004016110b49061174b565b60405180910390fd5b809150509392505050565b60006110db6110d684611870565b61184b565b9050828152602081018484840111156110f357600080fd5b6110fe8482856119f1565b509392505050565b60008135905061111581611dcb565b92915050565b60008135905061112a81611de2565b92915050565b60008083601f84011261114257600080fd5b8235905067ffffffffffffffff81111561115b57600080fd5b60208301915083600182028301111561117357600080fd5b9250929050565b600082601f83011261118b57600080fd5b815161119b8482602086016110c8565b91505092915050565b6000813590506111b381611df9565b92915050565b6000602082840312156111cb57600080fd5b60006111d984828501611106565b91505092915050565b6000602082840312156111f457600080fd5b60006112028482850161111b565b91505092915050565b60006020828403121561121d57600080fd5b600082015167ffffffffffffffff81111561123757600080fd5b6112438482850161117a565b91505092915050565b60008060008060006080868803121561126457600080fd5b6000611272888289016111a4565b955050602061128388828901611106565b9450506040611294888289016111a4565b935050606086013567ffffffffffffffff8111156112b157600080fd5b6112bd88828901611130565b92509250509295509295909350565b6112d58161196e565b82525050565b6112ec6112e78261196e565b611a55565b82525050565b6112fb81611980565b82525050565b600061130d83856118b7565b935061131a8385846119e2565b61132383611ad7565b840190509392505050565b6000611339826118a1565b61134381856118b7565b93506113538185602086016119f1565b61135c81611ad7565b840191505092915050565b6000611372826118a1565b61137c81856118c8565b935061138c8185602086016119f1565b80840191505092915050565b60006113a3826118ac565b6113ad81856118d3565b93506113bd8185602086016119f1565b6113c681611ad7565b840191505092915050565b60006113de6020836118d3565b91506113e982611af5565b602082019050919050565b60006114016029836118d3565b915061140c82611b1e565b604082019050919050565b60006114246026836118d3565b915061142f82611b6d565b604082019050919050565b6000611447601c836118d3565b915061145282611bbc565b602082019050919050565b600061146a600e836118d3565b915061147582611be5565b602082019050919050565b600061148d602e836118d3565b915061149882611c0e565b604082019050919050565b60006114b06019836118d3565b91506114bb82611c5d565b602082019050919050565b60006114d36019836118d3565b91506114de82611c86565b602082019050919050565b60006114f66015836118d3565b915061150182611caf565b602082019050919050565b60006115196020836118d3565b915061152482611cd8565b602082019050919050565b600061153c6014836118d3565b915061154782611d01565b602082019050919050565b600061155f6011836118d3565b915061156a82611d2a565b602082019050919050565b60006115826031836118d3565b915061158d82611d53565b604082019050919050565b60006115a5601d836118d3565b91506115b082611da2565b602082019050919050565b60006115c782846112db565b60148201915081905092915050565b60006115e28284611367565b915081905092915050565b600060208201905061160260008301846112cc565b92915050565b600060208201905061161d60008301846112f2565b92915050565b6000602082019050818103600083015261163e818486611301565b90509392505050565b60006020820190508181036000830152611661818461132e565b905092915050565b600060208201905081810360008301526116838184611398565b905092915050565b600060208201905081810360008301526116a4816113d1565b9050919050565b600060208201905081810360008301526116c4816113f4565b9050919050565b600060208201905081810360008301526116e481611417565b9050919050565b600060208201905081810360008301526117048161143a565b9050919050565b600060208201905081810360008301526117248161145d565b9050919050565b6000602082019050818103600083015261174481611480565b9050919050565b60006020820190508181036000830152611764816114a3565b9050919050565b60006020820190508181036000830152611784816114c6565b9050919050565b600060208201905081810360008301526117a4816114e9565b9050919050565b600060208201905081810360008301526117c48161150c565b9050919050565b600060208201905081810360008301526117e48161152f565b9050919050565b6000602082019050818103600083015261180481611552565b9050919050565b6000602082019050818103600083015261182481611575565b9050919050565b6000602082019050818103600083015261184481611598565b9050919050565b6000611855611866565b90506118618282611a24565b919050565b6000604051905090565b600067ffffffffffffffff82111561188b5761188a611aa8565b5b61189482611ad7565b9050602081019050919050565b600081519050919050565b600081519050919050565b600082825260208201905092915050565b600081905092915050565b600082825260208201905092915050565b60006118ef826119d8565b91506118fa836119d8565b9250827fffffffffffffffffffffffffffffffffffffffffffffffffffffffffffffffff0382111561192f5761192e611a79565b5b828201905092915050565b6000611945826119d8565b9150611950836119d8565b92508282101561196357611962611a79565b5b828203905092915050565b6000611979826119b8565b9050919050565b60008115159050919050565b60007fffffffff0000000000000000000000000000000000000000000000000000000082169050919050565b600073ffffffffffffffffffffffffffffffffffffffff82169050919050565b6000819050919050565b82818337600083830152505050565b60005b83811015611a0f5780820151818401526020810190506119f4565b83811115611a1e576000848401525b50505050565b611a2d82611ad7565b810181811067ffffffffffffffff82111715611a4c57611a4b611aa8565b5b80604052505050565b6000611a6082611a67565b9050919050565b6000611a7282611ae8565b9050919050565b7f4e487b7100000000000000000000000000000000000000000000000000000000600052601160045260246000fd5b7f4e487b7100000000000000000000000000000000000000000000000000000000600052604160045260246000fd5b6000601f19601f8301169050919050565b60008160601b9050919050565b7f437265617465323a2062797465636f6465206c656e677468206973207a65726f600082015250565b7f4f776e61626c653a206f776e65722063616e206f6e6c7920626520696e69746960008201527f61746564206f6e63650000000000000000000000000000000000000000000000602082015250565b7f4f776e61626c653a206e6577206f776e657220697320746865207a65726f206160008201527f6464726573730000000000000000000000000000000000000000000000000000602082015250565b7f4552433136353a20696e76616c696420696e7465726661636520696400000000600082015250565b7f736c6963655f6f766572666c6f77000000000000000000000000000000000000600082015250565b7f496e697469616c697a61626c653a20636f6e747261637420697320616c72656160008201527f647920696e697469616c697a6564000000000000000000000000000000000000602082015250565b7f437265617465323a204661696c6564206f6e206465706c6f7900000000000000600082015250565b7f436f756c64206e6f74206465706c6f7920636f6e747261637400000000000000600082015250565b7f746f427974657333325f6f75744f66426f756e64730000000000000000000000600082015250565b7f4f776e61626c653a2063616c6c6572206973206e6f7420746865206f776e6572600082015250565b7f57726f6e67206f7065726174696f6e2074797065000000000000000000000000600082015250565b7f736c6963655f6f75744f66426f756e6473000000000000000000000000000000600082015250565b7f44656c65676174652063616c6c206973206e6f7420616c6c6f77656420746f2060008201527f6d6f6469667920746865206f776e657221000000000000000000000000000000602082015250565b7f437265617465323a20696e73756666696369656e742062616c616e6365000000600082015250565b611dd48161196e565b8114611ddf57600080fd5b50565b611deb8161198c565b8114611df657600080fd5b50565b611e02816119d8565b8114611e0d57600080fd5b5056fea2646970667358221220c5b601c4548db3e9788ccb96b5dc54222f36c40254a21583c954ba90db0c6d3764736f6c63430008030033",
  "immutableReferences": {},
  "source": "// SPDX-License-Identifier: Apache-2.0\npragma solidity ^0.8.0;\n\nimport \"./ERC725XCore.sol\";\nimport \"@openzeppelin/contracts/proxy/utils/Initializable.sol\";\n\n/**\n * @title ERC725 X executor\n * @dev Implementation of a contract module which provides the ability to call arbitrary functions at any other smart contract and itself,\n * including using `delegatecall`, as well creating contracts using `create` and `create2`.\n * This is the basis for a smart contract based account system, but could also be used as a proxy account system.\n *\n * `execute` MUST only be called by the owner of the contract set via ERC173.\n *\n *  @author Fabian Vogelsteller <fabian@lukso.network>\n */\ncontract ERC725XInit is ERC725XCore, Initializable {\n    function initialize(address _newOwner) public virtual initializer {\n        // Do not call Ownable constructor, so to prevent address(0) to be owner\n        // This is necessary to prevent a contract that implements both ERC725X and ERC725Y to call both constructors\n        \n        if (_newOwner != owner()) {\n            OwnableUnset.initOwner(_newOwner);\n        }\n\n        _registerInterface(_INTERFACE_ID_ERC725X);\n    }\n\n    function execute(\n        uint256 _operation,\n        address _to,\n        uint256 _value,\n        bytes calldata _data\n    ) public payable virtual override onlyOwner returns(bytes memory result) {\n        result = super.execute(_operation,_to,_value,_data);\n    }\n}\n",
  "sourcePath": "/Users/jeancavallera/Documents/Repositories/ERC725/implementations/contracts/ERC725/ERC725XInit.sol",
  "compiler": {
    "name": "solc",
    "version": "0.8.3+commit.8d00100c.Emscripten.clang"
  },
  "schemaVersion": "3.4.1",
  "updatedAt": "2021-10-05T22:08:16.451Z",
  "devdoc": {
    "author": "Fabian Vogelsteller <fabian@lukso.network>",
    "details": "Implementation of a contract module which provides the ability to call arbitrary functions at any other smart contract and itself, including using `delegatecall`, as well creating contracts using `create` and `create2`. This is the basis for a smart contract based account system, but could also be used as a proxy account system. `execute` MUST only be called by the owner of the contract set via ERC173.",
    "kind": "dev",
    "methods": {
      "execute(uint256,address,uint256,bytes)": {
        "params": {
          "_data": "the call data, or the contract data to deploy",
          "_operation": "the operation to execute: CALL = 0; DELEGATECALL = 1; CREATE2 = 2; CREATE = 3;",
          "_to": "the smart contract or address to interact with. `_to` will be unused if a contract is created (operation 2 and 3)",
          "_value": "the value of ETH to transfer"
        }
      },
      "owner()": {
        "details": "Returns the address of the current owner."
      },
      "renounceOwnership()": {
        "details": "Leaves the contract without owner. It will not be possible to call `onlyOwner` functions anymore. Can only be called by the current owner. NOTE: Renouncing ownership will leave the contract without an owner, thereby removing any functionality that is only available to the owner."
      },
      "supportsInterface(bytes4)": {
        "details": "See {IERC165-supportsInterface}."
      },
      "transferOwnership(address)": {
        "details": "Transfers ownership of the contract to a new account (`newOwner`). Can only be called by the current owner."
      }
    },
    "title": "ERC725 X executor",
    "version": 1
  },
  "userdoc": {
    "kind": "user",
    "methods": {
      "execute(uint256,address,uint256,bytes)": {
        "notice": "Executes any other smart contract. Is only callable by the owner."
      }
    },
    "version": 1
  }
}