{
  "contractName": "ERC725X",
  "abi": [
    {
      "inputs": [
        {
          "internalType": "address",
          "name": "_newOwner",
          "type": "address"
        }
      ],
      "stateMutability": "nonpayable",
      "type": "constructor"
    },
    {
      "anonymous": false,
      "inputs": [
        {
          "indexed": true,
          "internalType": "address",
          "name": "contractAddress",
          "type": "address"
        }
      ],
      "name": "ContractCreated",
      "type": "event"
    },
    {
      "anonymous": false,
      "inputs": [
        {
          "indexed": true,
          "internalType": "uint256",
          "name": "_operation",
          "type": "uint256"
        },
        {
          "indexed": true,
          "internalType": "address",
          "name": "_to",
          "type": "address"
        },
        {
          "indexed": true,
          "internalType": "uint256",
          "name": "_value",
          "type": "uint256"
        },
        {
          "indexed": false,
          "internalType": "bytes",
          "name": "_data",
          "type": "bytes"
        }
      ],
      "name": "Executed",
      "type": "event"
    },
    {
      "anonymous": false,
      "inputs": [
        {
          "indexed": true,
          "internalType": "address",
          "name": "previousOwner",
          "type": "address"
        },
        {
          "indexed": true,
          "internalType": "address",
          "name": "newOwner",
          "type": "address"
        }
      ],
      "name": "OwnershipTransferred",
      "type": "event"
    },
    {
      "inputs": [],
      "name": "owner",
      "outputs": [
        {
          "internalType": "address",
          "name": "",
          "type": "address"
        }
      ],
      "stateMutability": "view",
      "type": "function"
    },
    {
      "inputs": [],
      "name": "renounceOwnership",
      "outputs": [],
      "stateMutability": "nonpayable",
      "type": "function"
    },
    {
      "inputs": [
        {
          "internalType": "bytes4",
          "name": "interfaceId",
          "type": "bytes4"
        }
      ],
      "name": "supportsInterface",
      "outputs": [
        {
          "internalType": "bool",
          "name": "",
          "type": "bool"
        }
      ],
      "stateMutability": "view",
      "type": "function"
    },
    {
      "inputs": [
        {
          "internalType": "address",
          "name": "newOwner",
          "type": "address"
        }
      ],
      "name": "transferOwnership",
      "outputs": [],
      "stateMutability": "nonpayable",
      "type": "function"
    },
    {
      "inputs": [
        {
          "internalType": "uint256",
          "name": "_operation",
          "type": "uint256"
        },
        {
          "internalType": "address",
          "name": "_to",
          "type": "address"
        },
        {
          "internalType": "uint256",
          "name": "_value",
          "type": "uint256"
        },
        {
          "internalType": "bytes",
          "name": "_data",
          "type": "bytes"
        }
      ],
      "name": "execute",
      "outputs": [
        {
          "internalType": "bytes",
          "name": "result",
          "type": "bytes"
        }
      ],
      "stateMutability": "payable",
      "type": "function"
    }
  ],
  "bytecode": "0x60806040523480156200001157600080fd5b5060405162001fbf38038062001fbf833981810160405281019062000037919062000327565b62000047620000c960201b60201c565b73ffffffffffffffffffffffffffffffffffffffff168173ffffffffffffffffffffffffffffffffffffffff161462000091576200009081620000f260201b620003de1760201c565b5b620000c27f44c028fe000000000000000000000000000000000000000000000000000000006200017460201b60201c565b50620004bc565b60008060009054906101000a900473ffffffffffffffffffffffffffffffffffffffff16905090565b600060149054906101000a900460ff161562000145576040517f08c379a00000000000000000000000000000000000000000000000000000000081526004016200013c90620003a1565b60405180910390fd5b6001600060146101000a81548160ff02191690831515021790555062000171816200024c60201b60201c565b50565b63ffffffff60e01b817bffffffffffffffffffffffffffffffffffffffffffffffffffffffff19161415620001e0576040517f08c379a0000000000000000000000000000000000000000000000000000000008152600401620001d790620003c3565b60405180910390fd5b6001806000837bffffffffffffffffffffffffffffffffffffffffffffffffffffffff19167bffffffffffffffffffffffffffffffffffffffffffffffffffffffff1916815260200190815260200160002060006101000a81548160ff02191690831515021790555050565b60008060009054906101000a900473ffffffffffffffffffffffffffffffffffffffff169050816000806101000a81548173ffffffffffffffffffffffffffffffffffffffff021916908373ffffffffffffffffffffffffffffffffffffffff1602179055508173ffffffffffffffffffffffffffffffffffffffff168173ffffffffffffffffffffffffffffffffffffffff167f8be0079c531659141344cd1fd0a4f28419497f9722a3daafe3b4186f6b6457e060405160405180910390a35050565b6000815190506200032181620004a2565b92915050565b6000602082840312156200033a57600080fd5b60006200034a8482850162000310565b91505092915050565b600062000362602983620003e5565b91506200036f826200042a565b604082019050919050565b600062000389601c83620003e5565b9150620003968262000479565b602082019050919050565b60006020820190508181036000830152620003bc8162000353565b9050919050565b60006020820190508181036000830152620003de816200037a565b9050919050565b600082825260208201905092915050565b600062000403826200040a565b9050919050565b600073ffffffffffffffffffffffffffffffffffffffff82169050919050565b7f4f776e61626c653a206f776e65722063616e206f6e6c7920626520696e69746960008201527f61746564206f6e63650000000000000000000000000000000000000000000000602082015250565b7f4552433136353a20696e76616c696420696e7465726661636520696400000000600082015250565b620004ad81620003f6565b8114620004b957600080fd5b50565b611af380620004cc6000396000f3fe60806040526004361061004a5760003560e01c806301ffc9a71461004f57806344c028fe1461008c578063715018a6146100bc5780638da5cb5b146100d3578063f2fde38b146100fe575b600080fd5b34801561005b57600080fd5b5061007660048036038101906100719190610f8d565b610127565b604051610083919061136d565b60405180910390f35b6100a660048036038101906100a19190610ff7565b61019f565b6040516100b391906113ac565b60405180910390f35b3480156100c857600080fd5b506100d1610235565b005b3480156100df57600080fd5b506100e86102bd565b6040516100f59190611352565b60405180910390f35b34801561010a57600080fd5b5061012560048036038101906101209190610f64565b6102e6565b005b600061013282610455565b80610198575060016000837bffffffffffffffffffffffffffffffffffffffffffffffffffffffff19167bffffffffffffffffffffffffffffffffffffffffffffffffffffffff1916815260200190815260200160002060009054906101000a900460ff165b9050919050565b60606101a96104bf565b73ffffffffffffffffffffffffffffffffffffffff166101c76102bd565b73ffffffffffffffffffffffffffffffffffffffff161461021d576040517f08c379a0000000000000000000000000000000000000000000000000000000008152600401610214906114d0565b60405180910390fd5b61022a86868686866104c7565b905095945050505050565b61023d6104bf565b73ffffffffffffffffffffffffffffffffffffffff1661025b6102bd565b73ffffffffffffffffffffffffffffffffffffffff16146102b1576040517f08c379a00000000000000000000000000000000000000000000000000000000081526004016102a8906114d0565b60405180910390fd5b6102bb6000610882565b565b60008060009054906101000a900473ffffffffffffffffffffffffffffffffffffffff16905090565b6102ee6104bf565b73ffffffffffffffffffffffffffffffffffffffff1661030c6102bd565b73ffffffffffffffffffffffffffffffffffffffff1614610362576040517f08c379a0000000000000000000000000000000000000000000000000000000008152600401610359906114d0565b60405180910390fd5b600073ffffffffffffffffffffffffffffffffffffffff168173ffffffffffffffffffffffffffffffffffffffff1614156103d2576040517f08c379a00000000000000000000000000000000000000000000000000000000081526004016103c990611430565b60405180910390fd5b6103db81610882565b50565b600060149054906101000a900460ff161561042e576040517f08c379a000000000000000000000000000000000000000000000000000000000815260040161042590611410565b60405180910390fd5b6001600060146101000a81548160ff02191690831515021790555061045281610882565b50565b60007f01ffc9a7000000000000000000000000000000000000000000000000000000007bffffffffffffffffffffffffffffffffffffffffffffffffffffffff1916827bffffffffffffffffffffffffffffffffffffffffffffffffffffffff1916149050919050565b600033905090565b6060838573ffffffffffffffffffffffffffffffffffffffff16877f1f920dbda597d7bf95035464170fa58d0a4b57f13a1c315ace6793b9f63688b88686604051610513929190611388565b60405180910390a460006109c45a61052b919061165f565b9050600087141561058d57610586868686868080601f016020809104026020016040519081016040528093929190818152602001838380828437600081840152601f19601f8201169050808301925050505050505084610946565b9150610878565b600187141561066e5760006105a06102bd565b90506105f18786868080601f016020809104026020016040519081016040528093929190818152602001838380828437600081840152601f19601f8201169050808301925050505050505084610a31565b92508073ffffffffffffffffffffffffffffffffffffffff166106126102bd565b73ffffffffffffffffffffffffffffffffffffffff1614610668576040517f08c379a000000000000000000000000000000000000000000000000000000000815260040161065f90611530565b60405180910390fd5b50610877565b60038714156106f15760006106c78686868080601f016020809104026020016040519081016040528093929190818152602001838380828437600081840152601f19601f82011690508083019250505050505050610b18565b9050806040516020016106da9190611320565b604051602081830303815290604052925050610876565b600287141561083a57600061075985858080601f016020809104026020016040519081016040528093929190818152602001838380828437600081840152601f19601f82011690508083019250505050505050602087879050610754919061165f565b610bdd565b905060006107bc86868080601f016020809104026020016040519081016040528093929190818152602001838380828437600081840152601f19601f8201169050808301925050505050505060006020898990506107b7919061165f565b610c44565b905060006107cb888484610d62565b9050806040516020016107de9190611320565b60405160208183030381529060405294508073ffffffffffffffffffffffffffffffffffffffff167fcf78cf0d6f3d8371e1075c69c492ab4ec5d8cf23a1a239b6a51a1d00be7ca31260405160405180910390a2505050610875565b6040517f08c379a000000000000000000000000000000000000000000000000000000000815260040161086c906114f0565b60405180910390fd5b5b5b5b5095945050505050565b60008060009054906101000a900473ffffffffffffffffffffffffffffffffffffffff169050816000806101000a81548173ffffffffffffffffffffffffffffffffffffffff021916908373ffffffffffffffffffffffffffffffffffffffff1602179055508173ffffffffffffffffffffffffffffffffffffffff168173ffffffffffffffffffffffffffffffffffffffff167f8be0079c531659141344cd1fd0a4f28419497f9722a3daafe3b4186f6b6457e060405160405180910390a35050565b60606000808673ffffffffffffffffffffffffffffffffffffffff16848787604051610972919061133b565b600060405180830381858888f193505050503d80600081146109b0576040519150601f19603f3d011682016040523d82523d6000602084013e6109b5565b606091505b509150915081610a24576044815110156109ce57600080fd5b600481019050808060200190518101906109e89190610fb6565b6040517f08c379a0000000000000000000000000000000000000000000000000000000008152600401610a1b91906113ce565b60405180910390fd5b8092505050949350505050565b60606000808573ffffffffffffffffffffffffffffffffffffffff168486604051610a5c919061133b565b6000604051808303818686f4925050503d8060008114610a98576040519150601f19603f3d011682016040523d82523d6000602084013e610a9d565b606091505b509150915081610b0c57604481511015610ab657600080fd5b60048101905080806020019051810190610ad09190610fb6565b6040517f08c379a0000000000000000000000000000000000000000000000000000000008152600401610b0391906113ce565b60405180910390fd5b80925050509392505050565b600081516020830184f09050600073ffffffffffffffffffffffffffffffffffffffff168173ffffffffffffffffffffffffffffffffffffffff161415610b94576040517f08c379a0000000000000000000000000000000000000000000000000000000008152600401610b8b90611490565b60405180910390fd5b8073ffffffffffffffffffffffffffffffffffffffff167fcf78cf0d6f3d8371e1075c69c492ab4ec5d8cf23a1a239b6a51a1d00be7ca31260405160405180910390a292915050565b6000602082610bec9190611609565b83511015610c2f576040517f08c379a0000000000000000000000000000000000000000000000000000000008152600401610c26906114b0565b60405180910390fd5b60008260208501015190508091505092915050565b606081601f83610c549190611609565b1015610c95576040517f08c379a0000000000000000000000000000000000000000000000000000000008152600401610c8c90611450565b60405180910390fd5b8183610ca19190611609565b84511015610ce4576040517f08c379a0000000000000000000000000000000000000000000000000000000008152600401610cdb90611510565b60405180910390fd5b6060821560008114610d055760405191506000825260208201604052610d56565b6040519150601f8416801560200281840101858101878315602002848b0101015b81831015610d435780518352602083019250602081019050610d26565b50868552601f19601f8301166040525050505b50809150509392505050565b60008084471015610da8576040517f08c379a0000000000000000000000000000000000000000000000000000000008152600401610d9f90611550565b60405180910390fd5b600083511415610ded576040517f08c379a0000000000000000000000000000000000000000000000000000000008152600401610de4906113f0565b60405180910390fd5b8383516020850187f59050600073ffffffffffffffffffffffffffffffffffffffff168173ffffffffffffffffffffffffffffffffffffffff161415610e68576040517f08c379a0000000000000000000000000000000000000000000000000000000008152600401610e5f90611470565b60405180910390fd5b809150509392505050565b6000610e86610e8184611595565b611570565b905082815260208101848484011115610e9e57600080fd5b610ea9848285611716565b509392505050565b600081359050610ec081611a78565b92915050565b600081359050610ed581611a8f565b92915050565b60008083601f840112610eed57600080fd5b8235905067ffffffffffffffff811115610f0657600080fd5b602083019150836001820283011115610f1e57600080fd5b9250929050565b600082601f830112610f3657600080fd5b8151610f46848260208601610e73565b91505092915050565b600081359050610f5e81611aa6565b92915050565b600060208284031215610f7657600080fd5b6000610f8484828501610eb1565b91505092915050565b600060208284031215610f9f57600080fd5b6000610fad84828501610ec6565b91505092915050565b600060208284031215610fc857600080fd5b600082015167ffffffffffffffff811115610fe257600080fd5b610fee84828501610f25565b91505092915050565b60008060008060006080868803121561100f57600080fd5b600061101d88828901610f4f565b955050602061102e88828901610eb1565b945050604061103f88828901610f4f565b935050606086013567ffffffffffffffff81111561105c57600080fd5b61106888828901610edb565b92509250509295509295909350565b61108081611693565b82525050565b61109761109282611693565b61177a565b82525050565b6110a6816116a5565b82525050565b60006110b883856115dc565b93506110c5838584611707565b6110ce836117fc565b840190509392505050565b60006110e4826115c6565b6110ee81856115dc565b93506110fe818560208601611716565b611107816117fc565b840191505092915050565b600061111d826115c6565b61112781856115ed565b9350611137818560208601611716565b80840191505092915050565b600061114e826115d1565b61115881856115f8565b9350611168818560208601611716565b611171816117fc565b840191505092915050565b60006111896020836115f8565b91506111948261181a565b602082019050919050565b60006111ac6029836115f8565b91506111b782611843565b604082019050919050565b60006111cf6026836115f8565b91506111da82611892565b604082019050919050565b60006111f2600e836115f8565b91506111fd826118e1565b602082019050919050565b60006112156019836115f8565b91506112208261190a565b602082019050919050565b60006112386019836115f8565b915061124382611933565b602082019050919050565b600061125b6015836115f8565b91506112668261195c565b602082019050919050565b600061127e6020836115f8565b915061128982611985565b602082019050919050565b60006112a16014836115f8565b91506112ac826119ae565b602082019050919050565b60006112c46011836115f8565b91506112cf826119d7565b602082019050919050565b60006112e76031836115f8565b91506112f282611a00565b604082019050919050565b600061130a601d836115f8565b915061131582611a4f565b602082019050919050565b600061132c8284611086565b60148201915081905092915050565b60006113478284611112565b915081905092915050565b60006020820190506113676000830184611077565b92915050565b6000602082019050611382600083018461109d565b92915050565b600060208201905081810360008301526113a38184866110ac565b90509392505050565b600060208201905081810360008301526113c681846110d9565b905092915050565b600060208201905081810360008301526113e88184611143565b905092915050565b600060208201905081810360008301526114098161117c565b9050919050565b600060208201905081810360008301526114298161119f565b9050919050565b60006020820190508181036000830152611449816111c2565b9050919050565b60006020820190508181036000830152611469816111e5565b9050919050565b6000602082019050818103600083015261148981611208565b9050919050565b600060208201905081810360008301526114a98161122b565b9050919050565b600060208201905081810360008301526114c98161124e565b9050919050565b600060208201905081810360008301526114e981611271565b9050919050565b6000602082019050818103600083015261150981611294565b9050919050565b60006020820190508181036000830152611529816112b7565b9050919050565b60006020820190508181036000830152611549816112da565b9050919050565b60006020820190508181036000830152611569816112fd565b9050919050565b600061157a61158b565b90506115868282611749565b919050565b6000604051905090565b600067ffffffffffffffff8211156115b0576115af6117cd565b5b6115b9826117fc565b9050602081019050919050565b600081519050919050565b600081519050919050565b600082825260208201905092915050565b600081905092915050565b600082825260208201905092915050565b6000611614826116fd565b915061161f836116fd565b9250827fffffffffffffffffffffffffffffffffffffffffffffffffffffffffffffffff038211156116545761165361179e565b5b828201905092915050565b600061166a826116fd565b9150611675836116fd565b9250828210156116885761168761179e565b5b828203905092915050565b600061169e826116dd565b9050919050565b60008115159050919050565b60007fffffffff0000000000000000000000000000000000000000000000000000000082169050919050565b600073ffffffffffffffffffffffffffffffffffffffff82169050919050565b6000819050919050565b82818337600083830152505050565b60005b83811015611734578082015181840152602081019050611719565b83811115611743576000848401525b50505050565b611752826117fc565b810181811067ffffffffffffffff82111715611771576117706117cd565b5b80604052505050565b60006117858261178c565b9050919050565b60006117978261180d565b9050919050565b7f4e487b7100000000000000000000000000000000000000000000000000000000600052601160045260246000fd5b7f4e487b7100000000000000000000000000000000000000000000000000000000600052604160045260246000fd5b6000601f19601f8301169050919050565b60008160601b9050919050565b7f437265617465323a2062797465636f6465206c656e677468206973207a65726f600082015250565b7f4f776e61626c653a206f776e65722063616e206f6e6c7920626520696e69746960008201527f61746564206f6e63650000000000000000000000000000000000000000000000602082015250565b7f4f776e61626c653a206e6577206f776e657220697320746865207a65726f206160008201527f6464726573730000000000000000000000000000000000000000000000000000602082015250565b7f736c6963655f6f766572666c6f77000000000000000000000000000000000000600082015250565b7f437265617465323a204661696c6564206f6e206465706c6f7900000000000000600082015250565b7f436f756c64206e6f74206465706c6f7920636f6e747261637400000000000000600082015250565b7f746f427974657333325f6f75744f66426f756e64730000000000000000000000600082015250565b7f4f776e61626c653a2063616c6c6572206973206e6f7420746865206f776e6572600082015250565b7f57726f6e67206f7065726174696f6e2074797065000000000000000000000000600082015250565b7f736c6963655f6f75744f66426f756e6473000000000000000000000000000000600082015250565b7f44656c65676174652063616c6c206973206e6f7420616c6c6f77656420746f2060008201527f6d6f6469667920746865206f776e657221000000000000000000000000000000602082015250565b7f437265617465323a20696e73756666696369656e742062616c616e6365000000600082015250565b611a8181611693565b8114611a8c57600080fd5b50565b611a98816116b1565b8114611aa357600080fd5b50565b611aaf816116fd565b8114611aba57600080fd5b5056fea2646970667358221220059b529e5de35c8e72cba3856c76aa9943455498132ecf732c3b3ad2c7df833064736f6c63430008030033",
  "immutableReferences": {},
  "source": "// SPDX-License-Identifier: Apache-2.0\npragma solidity ^0.8.0;\n\nimport \"./ERC725XCore.sol\";\n\n/**\n * @title ERC725 X executor\n * @dev Implementation of a contract module which provides the ability to call arbitrary functions at any other smart contract and itself,\n * including using `delegatecall`, as well creating contracts using `create` and `create2`.\n * This is the basis for a smart contract based account system, but could also be used as a proxy account system.\n *\n * `execute` MUST only be called by the owner of the contract set via ERC173.\n *\n *  @author Fabian Vogelsteller <fabian@lukso.network>\n */\ncontract ERC725X is ERC725XCore {\n    /**\n     * @notice Sets the owner of the contract\n     * @param _newOwner the owner of the contract.\n     */\n    constructor(address _newOwner) {\n        // This is necessary to prevent a contract that implements both ERC725X and ERC725Y to call both constructors\n        if (_newOwner != owner()) {\n            OwnableUnset.initOwner(_newOwner);\n        }\n        _registerInterface(_INTERFACE_ID_ERC725X);\n    }\n\n    function execute(\n        uint256 _operation,\n        address _to,\n        uint256 _value,\n        bytes calldata _data\n    ) public payable virtual override onlyOwner returns(bytes memory result) {\n        result = super.execute(_operation,_to,_value,_data);\n    }\n    \n}\n",
  "sourcePath": "/Users/jeancavallera/Documents/Repositories/ERC725/implementations/contracts/ERC725/ERC725X.sol",
  "compiler": {
    "name": "solc",
    "version": "0.8.3+commit.8d00100c.Emscripten.clang"
  },
  "schemaVersion": "3.4.1",
  "updatedAt": "2021-10-05T22:08:16.440Z",
  "devdoc": {
    "author": "Fabian Vogelsteller <fabian@lukso.network>",
    "details": "Implementation of a contract module which provides the ability to call arbitrary functions at any other smart contract and itself, including using `delegatecall`, as well creating contracts using `create` and `create2`. This is the basis for a smart contract based account system, but could also be used as a proxy account system. `execute` MUST only be called by the owner of the contract set via ERC173.",
    "kind": "dev",
    "methods": {
      "constructor": {
        "params": {
          "_newOwner": "the owner of the contract."
        }
      },
      "execute(uint256,address,uint256,bytes)": {
        "params": {
          "_data": "the call data, or the contract data to deploy",
          "_operation": "the operation to execute: CALL = 0; DELEGATECALL = 1; CREATE2 = 2; CREATE = 3;",
          "_to": "the smart contract or address to interact with. `_to` will be unused if a contract is created (operation 2 and 3)",
          "_value": "the value of ETH to transfer"
        }
      },
      "owner()": {
        "details": "Returns the address of the current owner."
      },
      "renounceOwnership()": {
        "details": "Leaves the contract without owner. It will not be possible to call `onlyOwner` functions anymore. Can only be called by the current owner. NOTE: Renouncing ownership will leave the contract without an owner, thereby removing any functionality that is only available to the owner."
      },
      "supportsInterface(bytes4)": {
        "details": "See {IERC165-supportsInterface}."
      },
      "transferOwnership(address)": {
        "details": "Transfers ownership of the contract to a new account (`newOwner`). Can only be called by the current owner."
      }
    },
    "title": "ERC725 X executor",
    "version": 1
  },
  "userdoc": {
    "kind": "user",
    "methods": {
      "constructor": {
        "notice": "Sets the owner of the contract"
      },
      "execute(uint256,address,uint256,bytes)": {
        "notice": "Executes any other smart contract. Is only callable by the owner."
      }
    },
    "version": 1
  }
}