{
  "contractName": "SimpleKeyManager",
  "abi": [
    {
      "inputs": [
        {
          "internalType": "address",
          "name": "_account",
          "type": "address"
        },
        {
          "internalType": "address",
          "name": "_newOwner",
          "type": "address"
        }
      ],
      "stateMutability": "nonpayable",
      "type": "constructor"
    },
    {
      "anonymous": false,
      "inputs": [
        {
          "indexed": true,
          "internalType": "uint256",
          "name": "_value",
          "type": "uint256"
        },
        {
          "indexed": false,
          "internalType": "bytes",
          "name": "_data",
          "type": "bytes"
        }
      ],
      "name": "Executed",
      "type": "event"
    },
    {
      "anonymous": false,
      "inputs": [
        {
          "indexed": true,
          "internalType": "bytes32",
          "name": "role",
          "type": "bytes32"
        },
        {
          "indexed": true,
          "internalType": "bytes32",
          "name": "previousAdminRole",
          "type": "bytes32"
        },
        {
          "indexed": true,
          "internalType": "bytes32",
          "name": "newAdminRole",
          "type": "bytes32"
        }
      ],
      "name": "RoleAdminChanged",
      "type": "event"
    },
    {
      "anonymous": false,
      "inputs": [
        {
          "indexed": true,
          "internalType": "bytes32",
          "name": "role",
          "type": "bytes32"
        },
        {
          "indexed": true,
          "internalType": "address",
          "name": "account",
          "type": "address"
        },
        {
          "indexed": true,
          "internalType": "address",
          "name": "sender",
          "type": "address"
        }
      ],
      "name": "RoleGranted",
      "type": "event"
    },
    {
      "anonymous": false,
      "inputs": [
        {
          "indexed": true,
          "internalType": "bytes32",
          "name": "role",
          "type": "bytes32"
        },
        {
          "indexed": true,
          "internalType": "address",
          "name": "account",
          "type": "address"
        },
        {
          "indexed": true,
          "internalType": "address",
          "name": "sender",
          "type": "address"
        }
      ],
      "name": "RoleRevoked",
      "type": "event"
    },
    {
      "inputs": [],
      "name": "Account",
      "outputs": [
        {
          "internalType": "contract IERC725X",
          "name": "",
          "type": "address"
        }
      ],
      "stateMutability": "view",
      "type": "function"
    },
    {
      "inputs": [],
      "name": "DEFAULT_ADMIN_ROLE",
      "outputs": [
        {
          "internalType": "bytes32",
          "name": "",
          "type": "bytes32"
        }
      ],
      "stateMutability": "view",
      "type": "function"
    },
    {
      "inputs": [],
      "name": "EXECUTOR_ROLE",
      "outputs": [
        {
          "internalType": "bytes32",
          "name": "",
          "type": "bytes32"
        }
      ],
      "stateMutability": "view",
      "type": "function"
    },
    {
      "inputs": [
        {
          "internalType": "bytes32",
          "name": "role",
          "type": "bytes32"
        }
      ],
      "name": "getRoleAdmin",
      "outputs": [
        {
          "internalType": "bytes32",
          "name": "",
          "type": "bytes32"
        }
      ],
      "stateMutability": "view",
      "type": "function"
    },
    {
      "inputs": [
        {
          "internalType": "bytes32",
          "name": "role",
          "type": "bytes32"
        },
        {
          "internalType": "address",
          "name": "account",
          "type": "address"
        }
      ],
      "name": "grantRole",
      "outputs": [],
      "stateMutability": "nonpayable",
      "type": "function"
    },
    {
      "inputs": [
        {
          "internalType": "bytes32",
          "name": "role",
          "type": "bytes32"
        },
        {
          "internalType": "address",
          "name": "account",
          "type": "address"
        }
      ],
      "name": "hasRole",
      "outputs": [
        {
          "internalType": "bool",
          "name": "",
          "type": "bool"
        }
      ],
      "stateMutability": "view",
      "type": "function"
    },
    {
      "inputs": [
        {
          "internalType": "bytes32",
          "name": "role",
          "type": "bytes32"
        },
        {
          "internalType": "address",
          "name": "account",
          "type": "address"
        }
      ],
      "name": "renounceRole",
      "outputs": [],
      "stateMutability": "nonpayable",
      "type": "function"
    },
    {
      "inputs": [
        {
          "internalType": "bytes32",
          "name": "role",
          "type": "bytes32"
        },
        {
          "internalType": "address",
          "name": "account",
          "type": "address"
        }
      ],
      "name": "revokeRole",
      "outputs": [],
      "stateMutability": "nonpayable",
      "type": "function"
    },
    {
      "inputs": [
        {
          "internalType": "address",
          "name": "_address",
          "type": "address"
        }
      ],
      "name": "getNonce",
      "outputs": [
        {
          "internalType": "uint256",
          "name": "",
          "type": "uint256"
        }
      ],
      "stateMutability": "view",
      "type": "function"
    },
    {
      "inputs": [
        {
          "internalType": "bytes",
          "name": "_data",
          "type": "bytes"
        }
      ],
      "name": "execute",
      "outputs": [],
      "stateMutability": "payable",
      "type": "function"
    },
    {
      "inputs": [
        {
          "internalType": "address",
          "name": "signedFor",
          "type": "address"
        },
        {
          "internalType": "bytes",
          "name": "_data",
          "type": "bytes"
        },
        {
          "internalType": "uint256",
          "name": "_nonce",
          "type": "uint256"
        },
        {
          "internalType": "bytes",
          "name": "_signature",
          "type": "bytes"
        }
      ],
      "name": "executeRelayedCall",
      "outputs": [],
      "stateMutability": "nonpayable",
      "type": "function"
    },
    {
      "inputs": [
        {
          "internalType": "bytes32",
          "name": "_hash",
          "type": "bytes32"
        },
        {
          "internalType": "bytes",
          "name": "_signature",
          "type": "bytes"
        }
      ],
      "name": "isValidSignature",
      "outputs": [
        {
          "internalType": "bytes4",
          "name": "magicValue",
          "type": "bytes4"
        }
      ],
      "stateMutability": "view",
      "type": "function"
    },
    {
      "inputs": [
        {
          "internalType": "bytes4",
          "name": "interfaceId",
          "type": "bytes4"
        }
      ],
      "name": "supportsInterface",
      "outputs": [
        {
          "internalType": "bool",
          "name": "",
          "type": "bool"
        }
      ],
      "stateMutability": "view",
      "type": "function"
    }
  ],
  "bytecode": "0x60806040523480156200001157600080fd5b506040516200282c3803806200282c83398181016040528101906200003791906200025a565b6200004c6000801b82620000ca60201b60201c565b620000817fd8aa0f3194971a2a116679f7c2090f6939c8d4e01a2a8d7e41d55e5351469e6360001b82620000ca60201b60201c565b81600160006101000a81548173ffffffffffffffffffffffffffffffffffffffff021916908373ffffffffffffffffffffffffffffffffffffffff1602179055505050620002e9565b620000dc8282620000e060201b60201c565b5050565b620000f28282620001d160201b60201c565b620001cd57600160008084815260200190815260200160002060000160008373ffffffffffffffffffffffffffffffffffffffff1673ffffffffffffffffffffffffffffffffffffffff16815260200190815260200160002060006101000a81548160ff021916908315150217905550620001726200023b60201b60201c565b73ffffffffffffffffffffffffffffffffffffffff168173ffffffffffffffffffffffffffffffffffffffff16837f2f8788117e7eff1d82e926ec794901d17c78024a50270940304540a733656f0d60405160405180910390a45b5050565b600080600084815260200190815260200160002060000160008373ffffffffffffffffffffffffffffffffffffffff1673ffffffffffffffffffffffffffffffffffffffff16815260200190815260200160002060009054906101000a900460ff16905092915050565b600033905090565b6000815190506200025481620002cf565b92915050565b600080604083850312156200026e57600080fd5b60006200027e8582860162000243565b9250506020620002918582860162000243565b9150509250929050565b6000620002a882620002af565b9050919050565b600073ffffffffffffffffffffffffffffffffffffffff82169050919050565b620002da816200029b565b8114620002e657600080fd5b50565b61253380620002f96000396000f3fe6080604052600436106100c25760003560e01c80632d0335ab1161007f57806391d148541161005957806391d148541461027f578063a217fddf146102bc578063d547741f146102e7578063e2b434b314610310576100c2565b80632d0335ab146101f05780632f2ff15d1461022d57806336568abe14610256576100c2565b806301ffc9a7146100c757806307bd02651461010457806309c5eabe1461012f5780630e9d797a1461014b5780631626ba7e14610176578063248a9ca3146101b3575b600080fd5b3480156100d357600080fd5b506100ee60048036038101906100e99190611868565b610339565b6040516100fb9190611c99565b60405180910390f35b34801561011057600080fd5b5061011961039a565b6040516101269190611cb4565b60405180910390f35b61014960048036038101906101449190611891565b6103c1565b005b34801561015757600080fd5b506101606104ff565b60405161016d9190611d51565b60405180910390f35b34801561018257600080fd5b5061019d60048036038101906101989190611814565b610525565b6040516101aa9190611d14565b60405180910390f35b3480156101bf57600080fd5b506101da60048036038101906101d591906117af565b610598565b6040516101e79190611cb4565b60405180910390f35b3480156101fc57600080fd5b50610217600480360381019061021291906116f3565b6105b7565b6040516102249190611eae565b60405180910390f35b34801561023957600080fd5b50610254600480360381019061024f91906117d8565b610600565b005b34801561026257600080fd5b5061027d600480360381019061027891906117d8565b610629565b005b34801561028b57600080fd5b506102a660048036038101906102a191906117d8565b6106ac565b6040516102b39190611c99565b60405180910390f35b3480156102c857600080fd5b506102d1610716565b6040516102de9190611cb4565b60405180910390f35b3480156102f357600080fd5b5061030e600480360381019061030991906117d8565b61071d565b005b34801561031c57600080fd5b506103376004803603810190610332919061171c565b610746565b005b6000631626ba7e60e01b7bffffffffffffffffffffffffffffffffffffffffffffffffffffffff1916827bffffffffffffffffffffffffffffffffffffffffffffffffffffffff19161480610393575061039282610a57565b5b9050919050565b7fd8aa0f3194971a2a116679f7c2090f6939c8d4e01a2a8d7e41d55e5351469e6360001b81565b6103f57fd8aa0f3194971a2a116679f7c2090f6939c8d4e01a2a8d7e41d55e5351469e6360001b6103f0610ad1565b6106ac565b610434576040517f08c379a000000000000000000000000000000000000000000000000000000000815260040161042b90611e6e565b60405180910390fd5b600160009054906101000a900473ffffffffffffffffffffffffffffffffffffffff1673ffffffffffffffffffffffffffffffffffffffff16345a908360405161047e9190611c22565b600060405180830381858888f193505050503d80600081146104bc576040519150601f19603f3d011682016040523d82523d6000602084013e6104c1565b606091505b505050347f2e733a17851169f232b3859260eb3ad2a086afd54e999eb4ea9afb7791702e41826040516104f49190611d2f565b60405180910390a250565b600160009054906101000a900473ffffffffffffffffffffffffffffffffffffffff1681565b6000806105328484610ad9565b90506105617fd8aa0f3194971a2a116679f7c2090f6939c8d4e01a2a8d7e41d55e5351469e6360001b826106ac565b8061057557506105746000801b826106ac565b5b6105865763ffffffff60e01b61058f565b631626ba7e60e01b5b91505092915050565b6000806000838152602001908152602001600020600101549050919050565b6000600260008373ffffffffffffffffffffffffffffffffffffffff1673ffffffffffffffffffffffffffffffffffffffff168152602001908152602001600020549050919050565b61060982610598565b61061a81610615610ad1565b610b00565b6106248383610b9d565b505050565b610631610ad1565b73ffffffffffffffffffffffffffffffffffffffff168173ffffffffffffffffffffffffffffffffffffffff161461069e576040517f08c379a000000000000000000000000000000000000000000000000000000000815260040161069590611e8e565b60405180910390fd5b6106a88282610c7d565b5050565b600080600084815260200190815260200160002060000160008373ffffffffffffffffffffffffffffffffffffffff1673ffffffffffffffffffffffffffffffffffffffff16815260200190815260200160002060009054906101000a900460ff16905092915050565b6000801b81565b61072682610598565b61073781610732610ad1565b610b00565b6107418383610c7d565b505050565b3073ffffffffffffffffffffffffffffffffffffffff168473ffffffffffffffffffffffffffffffffffffffff16146107b4576040517f08c379a00000000000000000000000000000000000000000000000000000000081526004016107ab90611e0e565b60405180910390fd5b60003084846040516020016107cb93929190611be9565b60405160208183030381529060405290506000610800836107f28480519060200120610d5e565b610ad990919063ffffffff16565b905061082f7fd8aa0f3194971a2a116679f7c2090f6939c8d4e01a2a8d7e41d55e5351469e6360001b826106ac565b61086e576040517f08c379a000000000000000000000000000000000000000000000000000000000815260040161086590611e6e565b60405180910390fd5b83600260008373ffffffffffffffffffffffffffffffffffffffff1673ffffffffffffffffffffffffffffffffffffffff16815260200190815260200160002054146108ef576040517f08c379a00000000000000000000000000000000000000000000000000000000081526004016108e690611e4e565b60405180910390fd5b6109426001600260008473ffffffffffffffffffffffffffffffffffffffff1673ffffffffffffffffffffffffffffffffffffffff16815260200190815260200160002054610d8e90919063ffffffff16565b600260008373ffffffffffffffffffffffffffffffffffffffff1673ffffffffffffffffffffffffffffffffffffffff16815260200190815260200160002081905550600160009054906101000a900473ffffffffffffffffffffffffffffffffffffffff1673ffffffffffffffffffffffffffffffffffffffff1660005a90876040516109d09190611c22565b600060405180830381858888f193505050503d8060008114610a0e576040519150601f19603f3d011682016040523d82523d6000602084013e610a13565b606091505b50505060007f2e733a17851169f232b3859260eb3ad2a086afd54e999eb4ea9afb7791702e4186604051610a479190611d2f565b60405180910390a2505050505050565b60007f7965db0b000000000000000000000000000000000000000000000000000000007bffffffffffffffffffffffffffffffffffffffffffffffffffffffff1916827bffffffffffffffffffffffffffffffffffffffffffffffffffffffff19161480610aca5750610ac982610da4565b5b9050919050565b600033905090565b6000806000610ae88585610e0e565b91509150610af581610e91565b819250505092915050565b610b0a82826106ac565b610b9957610b2f8173ffffffffffffffffffffffffffffffffffffffff1660146111e2565b610b3d8360001c60206111e2565b604051602001610b4e929190611c5f565b6040516020818303038152906040526040517f08c379a0000000000000000000000000000000000000000000000000000000008152600401610b909190611d6c565b60405180910390fd5b5050565b610ba782826106ac565b610c7957600160008084815260200190815260200160002060000160008373ffffffffffffffffffffffffffffffffffffffff1673ffffffffffffffffffffffffffffffffffffffff16815260200190815260200160002060006101000a81548160ff021916908315150217905550610c1e610ad1565b73ffffffffffffffffffffffffffffffffffffffff168173ffffffffffffffffffffffffffffffffffffffff16837f2f8788117e7eff1d82e926ec794901d17c78024a50270940304540a733656f0d60405160405180910390a45b5050565b610c8782826106ac565b15610d5a57600080600084815260200190815260200160002060000160008373ffffffffffffffffffffffffffffffffffffffff1673ffffffffffffffffffffffffffffffffffffffff16815260200190815260200160002060006101000a81548160ff021916908315150217905550610cff610ad1565b73ffffffffffffffffffffffffffffffffffffffff168173ffffffffffffffffffffffffffffffffffffffff16837ff6391f5c32d9c69d2a47ea670b442974b53935d1edc7fd64eb21e047a839171b60405160405180910390a45b5050565b600081604051602001610d719190611c39565b604051602081830303815290604052805190602001209050919050565b60008183610d9c9190611f6d565b905092915050565b60007f01ffc9a7000000000000000000000000000000000000000000000000000000007bffffffffffffffffffffffffffffffffffffffffffffffffffffffff1916827bffffffffffffffffffffffffffffffffffffffffffffffffffffffff1916149050919050565b600080604183511415610e505760008060006020860151925060408601519150606086015160001a9050610e44878285856114dc565b94509450505050610e8a565b604083511415610e81576000806020850151915060408501519050610e768683836115e9565b935093505050610e8a565b60006002915091505b9250929050565b60006004811115610ecb577f4e487b7100000000000000000000000000000000000000000000000000000000600052602160045260246000fd5b816004811115610f04577f4e487b7100000000000000000000000000000000000000000000000000000000600052602160045260246000fd5b1415610f0f576111df565b60016004811115610f49577f4e487b7100000000000000000000000000000000000000000000000000000000600052602160045260246000fd5b816004811115610f82577f4e487b7100000000000000000000000000000000000000000000000000000000600052602160045260246000fd5b1415610fc3576040517f08c379a0000000000000000000000000000000000000000000000000000000008152600401610fba90611d8e565b60405180910390fd5b60026004811115610ffd577f4e487b7100000000000000000000000000000000000000000000000000000000600052602160045260246000fd5b816004811115611036577f4e487b7100000000000000000000000000000000000000000000000000000000600052602160045260246000fd5b1415611077576040517f08c379a000000000000000000000000000000000000000000000000000000000815260040161106e90611dce565b60405180910390fd5b600360048111156110b1577f4e487b7100000000000000000000000000000000000000000000000000000000600052602160045260246000fd5b8160048111156110ea577f4e487b7100000000000000000000000000000000000000000000000000000000600052602160045260246000fd5b141561112b576040517f08c379a000000000000000000000000000000000000000000000000000000000815260040161112290611dee565b60405180910390fd5b600480811115611164577f4e487b7100000000000000000000000000000000000000000000000000000000600052602160045260246000fd5b81600481111561119d577f4e487b7100000000000000000000000000000000000000000000000000000000600052602160045260246000fd5b14156111de576040517f08c379a00000000000000000000000000000000000000000000000000000000081526004016111d590611e2e565b60405180910390fd5b5b50565b6060600060028360026111f59190611fc3565b6111ff9190611f6d565b67ffffffffffffffff81111561123e577f4e487b7100000000000000000000000000000000000000000000000000000000600052604160045260246000fd5b6040519080825280601f01601f1916602001820160405280156112705781602001600182028036833780820191505090505b5090507f3000000000000000000000000000000000000000000000000000000000000000816000815181106112ce577f4e487b7100000000000000000000000000000000000000000000000000000000600052603260045260246000fd5b60200101907effffffffffffffffffffffffffffffffffffffffffffffffffffffffffffff1916908160001a9053507f780000000000000000000000000000000000000000000000000000000000000081600181518110611358577f4e487b7100000000000000000000000000000000000000000000000000000000600052603260045260246000fd5b60200101907effffffffffffffffffffffffffffffffffffffffffffffffffffffffffffff1916908160001a905350600060018460026113989190611fc3565b6113a29190611f6d565b90505b600181111561148e577f3031323334353637383961626364656600000000000000000000000000000000600f86166010811061140a577f4e487b7100000000000000000000000000000000000000000000000000000000600052603260045260246000fd5b1a60f81b828281518110611447577f4e487b7100000000000000000000000000000000000000000000000000000000600052603260045260246000fd5b60200101907effffffffffffffffffffffffffffffffffffffffffffffffffffffffffffff1916908160001a905350600485901c9450806114879061210e565b90506113a5565b50600084146114d2576040517f08c379a00000000000000000000000000000000000000000000000000000000081526004016114c990611dae565b60405180910390fd5b8091505092915050565b6000807f7fffffffffffffffffffffffffffffff5d576e7357a4501ddfe92f46681b20a08360001c11156115175760006003915091506115e0565b601b8560ff161415801561152f5750601c8560ff1614155b156115415760006004915091506115e0565b6000600187878787604051600081526020016040526040516115669493929190611ccf565b6020604051602081039080840390855afa158015611588573d6000803e3d6000fd5b505050602060405103519050600073ffffffffffffffffffffffffffffffffffffffff168173ffffffffffffffffffffffffffffffffffffffff1614156115d7576000600192509250506115e0565b80600092509250505b94509492505050565b6000806000807f7fffffffffffffffffffffffffffffffffffffffffffffffffffffffffffffff85169150601b8560ff1c019050611629878288856114dc565b935093505050935093915050565b600061164a61164584611eee565b611ec9565b90508281526020810184848401111561166257600080fd5b61166d8482856120cc565b509392505050565b600081359050611684816124a1565b92915050565b600081359050611699816124b8565b92915050565b6000813590506116ae816124cf565b92915050565b600082601f8301126116c557600080fd5b81356116d5848260208601611637565b91505092915050565b6000813590506116ed816124e6565b92915050565b60006020828403121561170557600080fd5b600061171384828501611675565b91505092915050565b6000806000806080858703121561173257600080fd5b600061174087828801611675565b945050602085013567ffffffffffffffff81111561175d57600080fd5b611769878288016116b4565b935050604061177a878288016116de565b925050606085013567ffffffffffffffff81111561179757600080fd5b6117a3878288016116b4565b91505092959194509250565b6000602082840312156117c157600080fd5b60006117cf8482850161168a565b91505092915050565b600080604083850312156117eb57600080fd5b60006117f98582860161168a565b925050602061180a85828601611675565b9150509250929050565b6000806040838503121561182757600080fd5b60006118358582860161168a565b925050602083013567ffffffffffffffff81111561185257600080fd5b61185e858286016116b4565b9150509250929050565b60006020828403121561187a57600080fd5b60006118888482850161169f565b91505092915050565b6000602082840312156118a357600080fd5b600082013567ffffffffffffffff8111156118bd57600080fd5b6118c9848285016116b4565b91505092915050565b6118e36118de8261201d565b612169565b82525050565b6118f28161202f565b82525050565b6119018161203b565b82525050565b6119186119138261203b565b61217b565b82525050565b61192781612045565b82525050565b600061193882611f1f565b6119428185611f35565b93506119528185602086016120db565b61195b816121ff565b840191505092915050565b600061197182611f1f565b61197b8185611f46565b935061198b8185602086016120db565b80840191505092915050565b6119a0816120a8565b82525050565b60006119b182611f2a565b6119bb8185611f51565b93506119cb8185602086016120db565b6119d4816121ff565b840191505092915050565b60006119ea82611f2a565b6119f48185611f62565b9350611a048185602086016120db565b80840191505092915050565b6000611a1d601883611f51565b9150611a288261221d565b602082019050919050565b6000611a40602083611f51565b9150611a4b82612246565b602082019050919050565b6000611a63601f83611f51565b9150611a6e8261226f565b602082019050919050565b6000611a86601c83611f62565b9150611a9182612298565b601c82019050919050565b6000611aa9602283611f51565b9150611ab4826122c1565b604082019050919050565b6000611acc602683611f51565b9150611ad782612310565b604082019050919050565b6000611aef602283611f51565b9150611afa8261235f565b604082019050919050565b6000611b12600f83611f51565b9150611b1d826123ae565b602082019050919050565b6000611b35601a83611f51565b9150611b40826123d7565b602082019050919050565b6000611b58601783611f62565b9150611b6382612400565b601782019050919050565b6000611b7b601183611f62565b9150611b8682612429565b601182019050919050565b6000611b9e602f83611f51565b9150611ba982612452565b604082019050919050565b611bbd81612091565b82525050565b611bd4611bcf82612091565b612197565b82525050565b611be38161209b565b82525050565b6000611bf582866118d2565b601482019150611c058285611966565b9150611c118284611bc3565b602082019150819050949350505050565b6000611c2e8284611966565b915081905092915050565b6000611c4482611a79565b9150611c508284611907565b60208201915081905092915050565b6000611c6a82611b4b565b9150611c7682856119df565b9150611c8182611b6e565b9150611c8d82846119df565b91508190509392505050565b6000602082019050611cae60008301846118e9565b92915050565b6000602082019050611cc960008301846118f8565b92915050565b6000608082019050611ce460008301876118f8565b611cf16020830186611bda565b611cfe60408301856118f8565b611d0b60608301846118f8565b95945050505050565b6000602082019050611d29600083018461191e565b92915050565b60006020820190508181036000830152611d49818461192d565b905092915050565b6000602082019050611d666000830184611997565b92915050565b60006020820190508181036000830152611d8681846119a6565b905092915050565b60006020820190508181036000830152611da781611a10565b9050919050565b60006020820190508181036000830152611dc781611a33565b9050919050565b60006020820190508181036000830152611de781611a56565b9050919050565b60006020820190508181036000830152611e0781611a9c565b9050919050565b60006020820190508181036000830152611e2781611abf565b9050919050565b60006020820190508181036000830152611e4781611ae2565b9050919050565b60006020820190508181036000830152611e6781611b05565b9050919050565b60006020820190508181036000830152611e8781611b28565b9050919050565b60006020820190508181036000830152611ea781611b91565b9050919050565b6000602082019050611ec36000830184611bb4565b92915050565b6000611ed3611ee4565b9050611edf8282612138565b919050565b6000604051905090565b600067ffffffffffffffff821115611f0957611f086121d0565b5b611f12826121ff565b9050602081019050919050565b600081519050919050565b600081519050919050565b600082825260208201905092915050565b600081905092915050565b600082825260208201905092915050565b600081905092915050565b6000611f7882612091565b9150611f8383612091565b9250827fffffffffffffffffffffffffffffffffffffffffffffffffffffffffffffffff03821115611fb857611fb76121a1565b5b828201905092915050565b6000611fce82612091565b9150611fd983612091565b9250817fffffffffffffffffffffffffffffffffffffffffffffffffffffffffffffffff0483118215151615612012576120116121a1565b5b828202905092915050565b600061202882612071565b9050919050565b60008115159050919050565b6000819050919050565b60007fffffffff0000000000000000000000000000000000000000000000000000000082169050919050565b600073ffffffffffffffffffffffffffffffffffffffff82169050919050565b6000819050919050565b600060ff82169050919050565b60006120b3826120ba565b9050919050565b60006120c582612071565b9050919050565b82818337600083830152505050565b60005b838110156120f95780820151818401526020810190506120de565b83811115612108576000848401525b50505050565b600061211982612091565b9150600082141561212d5761212c6121a1565b5b600182039050919050565b612141826121ff565b810181811067ffffffffffffffff821117156121605761215f6121d0565b5b80604052505050565b600061217482612185565b9050919050565b6000819050919050565b600061219082612210565b9050919050565b6000819050919050565b7f4e487b7100000000000000000000000000000000000000000000000000000000600052601160045260246000fd5b7f4e487b7100000000000000000000000000000000000000000000000000000000600052604160045260246000fd5b6000601f19601f8301169050919050565b60008160601b9050919050565b7f45434453413a20696e76616c6964207369676e61747572650000000000000000600082015250565b7f537472696e67733a20686578206c656e67746820696e73756666696369656e74600082015250565b7f45434453413a20696e76616c6964207369676e6174757265206c656e67746800600082015250565b7f19457468657265756d205369676e6564204d6573736167653a0a333200000000600082015250565b7f45434453413a20696e76616c6964207369676e6174757265202773272076616c60008201527f7565000000000000000000000000000000000000000000000000000000000000602082015250565b7f4d657373616765206e6f74207369676e656420666f722074686973206b65794d60008201527f616e616765720000000000000000000000000000000000000000000000000000602082015250565b7f45434453413a20696e76616c6964207369676e6174757265202776272076616c60008201527f7565000000000000000000000000000000000000000000000000000000000000602082015250565b7f496e636f7272656374206e6f6e63650000000000000000000000000000000000600082015250565b7f4f6e6c79206578656375746f72732061726520616c6c6f776564000000000000600082015250565b7f416363657373436f6e74726f6c3a206163636f756e7420000000000000000000600082015250565b7f206973206d697373696e6720726f6c6520000000000000000000000000000000600082015250565b7f416363657373436f6e74726f6c3a2063616e206f6e6c792072656e6f756e636560008201527f20726f6c657320666f722073656c660000000000000000000000000000000000602082015250565b6124aa8161201d565b81146124b557600080fd5b50565b6124c18161203b565b81146124cc57600080fd5b50565b6124d881612045565b81146124e357600080fd5b50565b6124ef81612091565b81146124fa57600080fd5b5056fea2646970667358221220504878c5e0c51bd0a6c56cc509cd1189d5c1348654d503c8a508aceb6d4bd83c64736f6c63430008030033",
  "immutableReferences": {},
  "source": "// SPDX-License-Identifier: Apache-2.0\npragma solidity ^0.8.0;\n\n// interfaces\nimport \"../IERC1271.sol\";\nimport \"../ERC725/IERC725X.sol\";\n\n// modules\nimport \"@openzeppelin/contracts/utils/introspection/ERC165.sol\";\nimport \"@openzeppelin/contracts/access/AccessControl.sol\";\n\n// libraries\nimport \"@openzeppelin/contracts/utils/cryptography/ECDSA.sol\";\nimport \"@openzeppelin/contracts/utils/math/SafeMath.sol\";\n\ncontract SimpleKeyManager is ERC165, IERC1271, AccessControl {\n    using ECDSA for bytes32;\n    using SafeMath for uint256;\n\n    bytes4 internal constant _INTERFACE_ID_ERC1271 = 0x1626ba7e;\n    bytes4 internal constant _ERC1271FAILVALUE = 0xffffffff;\n\n    // keccak256(\"EXECUTOR_ROLE\")\n    bytes32 public constant EXECUTOR_ROLE = 0xd8aa0f3194971a2a116679f7c2090f6939c8d4e01a2a8d7e41d55e5351469e63;\n\n    IERC725X public Account;\n    mapping (address => uint256) private _nonceStore;\n\n    // EVENTS\n    event Executed(uint256 indexed  _value, bytes _data);\n\n    constructor(address _account, address _newOwner) {\n        // make owner an executor\n        _setupRole(DEFAULT_ADMIN_ROLE, _newOwner);\n        _setupRole(EXECUTOR_ROLE, _newOwner);\n\n\n        // Link account\n        Account = IERC725X(_account);\n    }\n\n\n    function getNonce(address _address)\n    public\n    view\n    returns (uint256) {\n        return _nonceStore[_address];\n    }\n\n\n    function execute(bytes memory _data)\n    external\n    payable\n    {\n        require(hasRole(EXECUTOR_ROLE, _msgSender()), 'Only executors are allowed');\n\n        address(Account).call{value: msg.value, gas: gasleft()}(_data); //(success, ) =\n        emit Executed(msg.value, _data);\n    }\n\n\n    // allows anybody to execute given they have a signed messaged from an executor\n    function executeRelayedCall(\n        address signedFor,\n        bytes memory _data,\n        uint256 _nonce,\n        bytes memory _signature\n    )\n    external\n    {\n        require(signedFor == address(this), 'Message not signed for this keyManager');\n\n        bytes memory blob = abi.encodePacked(\n            address(this), // needs to be signed for this keyManager\n            _data,\n            _nonce // Prevents replays\n        );\n\n        // recover the signer\n        address from = keccak256(blob).toEthSignedMessageHash().recover(_signature);\n\n        require(hasRole(EXECUTOR_ROLE, from), 'Only executors are allowed');\n        require(_nonceStore[from] == _nonce, 'Incorrect nonce');\n\n        // increase the nonce\n        _nonceStore[from] = _nonceStore[from].add(1);\n\n        address(Account).call{value: 0, gas: gasleft()}(_data); //(success, ) =\n        emit Executed(0, _data);\n    }\n\n    /**\n    * @notice Checks if an owner signed `_data`.\n    * ERC1271 interface.\n    *\n    * @param _hash hash of the data signed//Arbitrary length data signed on the behalf of address(this)\n    * @param _signature owner's signature(s) of the data\n    */\n    function isValidSignature(bytes32 _hash, bytes memory _signature)\n    override\n    public\n    view\n    returns (bytes4 magicValue)\n    {\n        address recoveredAddress = ECDSA.recover(_hash, _signature);\n\n        return (hasRole(EXECUTOR_ROLE, recoveredAddress) || hasRole(DEFAULT_ADMIN_ROLE, recoveredAddress))\n        ? _INTERFACE_ID_ERC1271\n        : _ERC1271FAILVALUE;\n    }\n\n    /**\n     * @dev See {IERC165-supportsInterface}.\n     */\n    function supportsInterface(bytes4 interfaceId) public view virtual override(ERC165, AccessControl) returns (bool) {\n        return interfaceId == _INTERFACE_ID_ERC1271\n        || super.supportsInterface(interfaceId);\n    }\n}",
  "sourcePath": "/Users/jeancavallera/Documents/Repositories/ERC725/implementations/contracts/helpers/SimpleKeyManager.sol",
  "compiler": {
    "name": "solc",
    "version": "0.8.3+commit.8d00100c.Emscripten.clang"
  },
  "schemaVersion": "3.4.1",
  "updatedAt": "2021-10-05T22:08:16.500Z",
  "devdoc": {
    "kind": "dev",
    "methods": {
      "getRoleAdmin(bytes32)": {
        "details": "Returns the admin role that controls `role`. See {grantRole} and {revokeRole}. To change a role's admin, use {_setRoleAdmin}."
      },
      "grantRole(bytes32,address)": {
        "details": "Grants `role` to `account`. If `account` had not been already granted `role`, emits a {RoleGranted} event. Requirements: - the caller must have ``role``'s admin role."
      },
      "hasRole(bytes32,address)": {
        "details": "Returns `true` if `account` has been granted `role`."
      },
      "isValidSignature(bytes32,bytes)": {
        "params": {
          "_hash": "hash of the data signed//Arbitrary length data signed on the behalf of address(this)",
          "_signature": "owner's signature(s) of the data"
        }
      },
      "renounceRole(bytes32,address)": {
        "details": "Revokes `role` from the calling account. Roles are often managed via {grantRole} and {revokeRole}: this function's purpose is to provide a mechanism for accounts to lose their privileges if they are compromised (such as when a trusted device is misplaced). If the calling account had been granted `role`, emits a {RoleRevoked} event. Requirements: - the caller must be `account`."
      },
      "revokeRole(bytes32,address)": {
        "details": "Revokes `role` from `account`. If `account` had been granted `role`, emits a {RoleRevoked} event. Requirements: - the caller must have ``role``'s admin role."
      },
      "supportsInterface(bytes4)": {
        "details": "See {IERC165-supportsInterface}."
      }
    },
    "version": 1
  },
  "userdoc": {
    "kind": "user",
    "methods": {
      "isValidSignature(bytes32,bytes)": {
        "notice": "Checks if an owner signed `_data`. ERC1271 interface."
      }
    },
    "version": 1
  }
}