{
  "contractName": "ERC725Utils",
  "abi": [
    {
      "inputs": [
        {
          "internalType": "contract IERC725Y",
          "name": "_account",
          "type": "IERC725Y"
        },
        {
          "internalType": "bytes32",
          "name": "_key",
          "type": "bytes32"
        }
      ],
      "name": "getDataSingle",
      "outputs": [
        {
          "internalType": "bytes",
          "name": "",
          "type": "bytes"
        }
      ],
      "stateMutability": "view",
      "type": "function"
    }
  ],
  "bytecode": "0x6106ca610053600b82828239805160001a607314610046577f4e487b7100000000000000000000000000000000000000000000000000000000600052600060045260246000fd5b30600052607381538281f3fe73000000000000000000000000000000000000000030146080604052600436106100355760003560e01c8063d177d9c81461003a575b600080fd5b610054600480360381019061004f919061035f565b61006a565b604051610061919061047b565b60405180910390f35b60606000600167ffffffffffffffff8111156100af577f4e487b7100000000000000000000000000000000000000000000000000000000600052604160045260246000fd5b6040519080825280602002602001820160405280156100dd5781602001602082028036833780820191505090505b509050828160008151811061011b577f4e487b7100000000000000000000000000000000000000000000000000000000600052603260045260246000fd5b60200260200101818152505060008473ffffffffffffffffffffffffffffffffffffffff16634e3e6e9c836040518263ffffffff1660e01b81526004016101629190610459565b60006040518083038186803b15801561017a57600080fd5b505afa15801561018e573d6000803e3d6000fd5b505050506040513d6000823e3d601f19601f820116820180604052508101906101b7919061031e565b6000815181106101f0577f4e487b7100000000000000000000000000000000000000000000000000000000600052603260045260246000fd5b60200260200101519050809250505092915050565b6000610218610213846104c2565b61049d565b9050808382526020820190508260005b85811015610258578151850161023e88826102df565b845260208401935060208301925050600181019050610228565b5050509392505050565b6000610275610270846104ee565b61049d565b90508281526020810184848401111561028d57600080fd5b6102988482856105c2565b509392505050565b600082601f8301126102b157600080fd5b81516102c1848260208601610205565b91505092915050565b6000813590506102d981610666565b92915050565b600082601f8301126102f057600080fd5b8151610300848260208601610262565b91505092915050565b6000813590506103188161067d565b92915050565b60006020828403121561033057600080fd5b600082015167ffffffffffffffff81111561034a57600080fd5b610356848285016102a0565b91505092915050565b6000806040838503121561037257600080fd5b600061038085828601610309565b9250506020610391858286016102ca565b9150509250929050565b60006103a78383610411565b60208301905092915050565b60006103be8261052f565b6103c88185610552565b93506103d38361051f565b8060005b838110156104045781516103eb888261039b565b97506103f683610545565b9250506001810190506103d7565b5085935050505092915050565b61041a81610586565b82525050565b600061042b8261053a565b6104358185610563565b93506104458185602086016105c2565b61044e81610655565b840191505092915050565b6000602082019050818103600083015261047381846103b3565b905092915050565b600060208201905081810360008301526104958184610420565b905092915050565b60006104a76104b8565b90506104b382826105f5565b919050565b6000604051905090565b600067ffffffffffffffff8211156104dd576104dc610626565b5b602082029050602081019050919050565b600067ffffffffffffffff82111561050957610508610626565b5b61051282610655565b9050602081019050919050565b6000819050602082019050919050565b600081519050919050565b600081519050919050565b6000602082019050919050565b600082825260208201905092915050565b600082825260208201905092915050565b600061057f826105a2565b9050919050565b6000819050919050565b600061059b82610574565b9050919050565b600073ffffffffffffffffffffffffffffffffffffffff82169050919050565b60005b838110156105e05780820151818401526020810190506105c5565b838111156105ef576000848401525b50505050565b6105fe82610655565b810181811067ffffffffffffffff8211171561061d5761061c610626565b5b80604052505050565b7f4e487b7100000000000000000000000000000000000000000000000000000000600052604160045260246000fd5b6000601f19601f8301169050919050565b61066f81610586565b811461067a57600080fd5b50565b61068681610590565b811461069157600080fd5b5056fea26469706673582212209fc2cecc136f6a187bd84b3c17448bb71d7e1e48f83bb2211ff2ba0db334217d64736f6c63430008030033",
  "immutableReferences": {},
  "source": "// SPDX-License-Identifier: Apache-2.0\npragma solidity ^0.8.0;\n\nimport \"../ERC725/ERC725Y.sol\";\nimport \"../ERC725/ERC725YInit.sol\";\n\nlibrary ERC725Utils {\n    \n    function getDataSingle(IERC725Y _account, bytes32 _key) public view returns (bytes memory) {\n        bytes32[] memory keys = new bytes32[](1);\n        keys[0] = _key;\n        bytes memory fetchResult = _account.getData(keys)[0];\n        return fetchResult;\n    }\n\n}",
  "sourcePath": "/Users/jeancavallera/Documents/Repositories/ERC725/implementations/contracts/Utils/ERC725Utils.sol",
  "compiler": {
    "name": "solc",
    "version": "0.8.3+commit.8d00100c.Emscripten.clang"
  },
  "schemaVersion": "3.4.1",
  "updatedAt": "2021-10-05T22:08:16.470Z",
  "devdoc": {
    "kind": "dev",
    "methods": {},
    "version": 1
  },
  "userdoc": {
    "kind": "user",
    "methods": {},
    "version": 1
  }
}