{
  "contractName": "Executor",
  "abi": [
    {
      "inputs": [
        {
          "internalType": "address",
          "name": "_account",
          "type": "address"
        }
      ],
      "stateMutability": "nonpayable",
      "type": "constructor"
    },
    {
      "inputs": [],
      "name": "account",
      "outputs": [
        {
          "internalType": "contract ERC725",
          "name": "",
          "type": "address"
        }
      ],
      "stateMutability": "view",
      "type": "function"
    },
    {
      "inputs": [],
      "name": "test",
      "outputs": [
        {
          "internalType": "bytes",
          "name": "",
          "type": "bytes"
        }
      ],
      "stateMutability": "nonpayable",
      "type": "function"
    },
    {
      "inputs": [],
      "name": "executeSetData",
      "outputs": [
        {
          "internalType": "bool",
          "name": "",
          "type": "bool"
        }
      ],
      "stateMutability": "nonpayable",
      "type": "function"
    },
    {
      "inputs": [
        {
          "internalType": "address",
          "name": "_recipient",
          "type": "address"
        }
      ],
      "name": "executeLyxTransfer",
      "outputs": [],
      "stateMutability": "nonpayable",
      "type": "function"
    },
    {
      "inputs": [
        {
          "internalType": "address",
          "name": "_targetContract",
          "type": "address"
        }
      ],
      "name": "executeContractCall",
      "outputs": [],
      "stateMutability": "nonpayable",
      "type": "function"
    }
  ],
  "bytecode": "0x608060405234801561001057600080fd5b50604051610b94380380610b948339818101604052810190610032919061008d565b806000806101000a81548173ffffffffffffffffffffffffffffffffffffffff021916908373ffffffffffffffffffffffffffffffffffffffff160217905550506100ff565b600081519050610087816100e8565b92915050565b60006020828403121561009f57600080fd5b60006100ad84828501610078565b91505092915050565b60006100c1826100c8565b9050919050565b600073ffffffffffffffffffffffffffffffffffffffff82169050919050565b6100f1816100b6565b81146100fc57600080fd5b50565b610a868061010e6000396000f3fe608060405234801561001057600080fd5b50600436106100575760003560e01c80632e4749221461005c57806332e157b5146100785780635dab2420146100965780639f51af95146100b4578063f8a8fd6d146100d0575b600080fd5b610076600480360381019061007191906105ab565b6100ee565b005b6100806100f1565b60405161008d9190610804565b60405180910390f35b61009e610333565b6040516100ab9190610841565b60405180910390f35b6100ce60048036038101906100c991906105ab565b610357565b005b6100d861035a565b6040516100e5919061081f565b60405180910390f35b50565b600080600167ffffffffffffffff811115610135577f4e487b7100000000000000000000000000000000000000000000000000000000600052604160045260246000fd5b6040519080825280602002602001820160405280156101635781602001602082028036833780820191505090505b509050604051602001610175906107b8565b60405160208183030381529060405280519060200120816000815181106101c5577f4e487b7100000000000000000000000000000000000000000000000000000000600052603260045260246000fd5b6020026020010181815250506000600167ffffffffffffffff811115610214577f4e487b7100000000000000000000000000000000000000000000000000000000600052604160045260246000fd5b60405190808252806020026020018201604052801561024757816020015b60608152602001906001900390816102325790505b5090506040516020016102599061085c565b604051602081830303815290604052816000815181106102a2577f4e487b7100000000000000000000000000000000000000000000000000000000600052603260045260246000fd5b602002602001018190525060006314a6e29360e01b83836040516024016102ca9291906107cd565b604051602081830303815290604052907bffffffffffffffffffffffffffffffffffffffffffffffffffffffff19166020820180517bffffffffffffffffffffffffffffffffffffffffffffffffffffffff838183161783525050505090506000935050505090565b60008054906101000a900473ffffffffffffffffffffffffffffffffffffffff1681565b50565b60606000600167ffffffffffffffff81111561039f577f4e487b7100000000000000000000000000000000000000000000000000000000600052604160045260246000fd5b6040519080825280602002602001820160405280156103cd5781602001602082028036833780820191505090505b5090506040516020016103df906107b8565b604051602081830303815290604052805190602001208160008151811061042f577f4e487b7100000000000000000000000000000000000000000000000000000000600052603260045260246000fd5b6020026020010181815250506000600167ffffffffffffffff81111561047e577f4e487b7100000000000000000000000000000000000000000000000000000000600052604160045260246000fd5b6040519080825280602002602001820160405280156104b157816020015b606081526020019060019003908161049c5790505b5090506040516020016104c39061085c565b6040516020818303038152906040528160008151811061050c577f4e487b7100000000000000000000000000000000000000000000000000000000600052603260045260246000fd5b60200260200101819052506314a6e29360e01b82826040516024016105329291906107cd565b604051602081830303815290604052907bffffffffffffffffffffffffffffffffffffffffffffffffffffffff19166020820180517bffffffffffffffffffffffffffffffffffffffffffffffffffffffff83818316178352505050509250505090565b6000813590506105a581610a39565b92915050565b6000602082840312156105bd57600080fd5b60006105cb84828501610596565b91505092915050565b60006105e083836106e2565b60208301905092915050565b60006105f883836106f1565b905092915050565b600061060b8261089c565b61061581856108d7565b93506106208361087c565b8060005b8381101561065157815161063888826105d4565b9750610643836108bd565b925050600181019050610624565b5085935050505092915050565b6000610669826108a7565b61067381856108e8565b9350836020820285016106858561088c565b8060005b858110156106c157848403895281516106a285826105ec565b94506106ad836108ca565b925060208a01995050600181019050610689565b50829750879550505050505092915050565b6106dc81610949565b82525050565b6106eb81610955565b82525050565b60006106fc826108b2565b61070681856108f9565b93506107168185602086016109a3565b61071f816109d6565b840191505092915050565b6000610735826108b2565b61073f818561090a565b935061074f8185602086016109a3565b610758816109d6565b840191505092915050565b61076c8161097f565b82525050565b600061077f600a8361092c565b915061078a826109e7565b600a82019050919050565b60006107a2600c8361091b565b91506107ad82610a10565b602082019050919050565b60006107c382610772565b9150819050919050565b600060408201905081810360008301526107e78185610600565b905081810360208301526107fb818461065e565b90509392505050565b600060208201905061081960008301846106d3565b92915050565b60006020820190508181036000830152610839818461072a565b905092915050565b60006020820190506108566000830184610763565b92915050565b6000602082019050818103600083015261087581610795565b9050919050565b6000819050602082019050919050565b6000819050602082019050919050565b600081519050919050565b600081519050919050565b600081519050919050565b6000602082019050919050565b6000602082019050919050565b600082825260208201905092915050565b600082825260208201905092915050565b600082825260208201905092915050565b600082825260208201905092915050565b600082825260208201905092915050565b600081905092915050565b60006109428261095f565b9050919050565b60008115159050919050565b6000819050919050565b600073ffffffffffffffffffffffffffffffffffffffff82169050919050565b600061098a82610991565b9050919050565b600061099c8261095f565b9050919050565b60005b838110156109c15780820151818401526020810190506109a6565b838111156109d0576000848401525b50505050565b6000601f19601f8301169050919050565b7f4d7946697273744b657900000000000000000000000000000000000000000000600082015250565b7f48656c6c6f204c756b736f210000000000000000000000000000000000000000600082015250565b610a4281610937565b8114610a4d57600080fd5b5056fea2646970667358221220f91e29eced7e612ff4bcb411cefed85c4c839c7593e205b955b1d58201bbba4c64736f6c63430008030033",
  "immutableReferences": {},
  "source": "// SPDX-License-Identifier: Apache-2.0\npragma solidity ^0.8.3;\n\nimport \"../ERC725/ERC725.sol\";\n\n\ncontract Executor {\n\n    ERC725 public account;\n    // KeyManager public keyManager;\n\n    constructor(address _account) {\n        account = ERC725(_account);\n        // keyManager = KeyManager(account.owner());\n    }\n    \n    function test() public returns(bytes memory) {\n        bytes32[] memory keys = new bytes32[](1);\n        keys[0] = keccak256(abi.encodePacked(\"MyFirstKey\"));\n        // create the value\n        bytes[] memory values = new bytes[](1);\n        values[0] = abi.encode(\"Hello Lukso!\");\n\n        // abi-encode the payload for ERC725\n        return abi.encodeWithSelector(\n            account.setData.selector,\n            keys, \n            values\n        );\n    }\n\n    function executeSetData() public returns (bool) {\n        // create the key\n        bytes32[] memory keys = new bytes32[](1);\n        keys[0] = keccak256(abi.encodePacked(\"MyFirstKey\"));\n        // create the value\n        bytes[] memory values = new bytes[](1);\n        values[0] = abi.encode(\"Hello Lukso!\");\n\n        // abi-encode the payload for ERC725\n        bytes memory erc725Payload = abi.encodeWithSelector(\n            account.setData.selector,\n            keys, \n            values\n        );\n        \n        // did it work?\n        return false;\n    }\n\n    function executeLyxTransfer(address _recipient) public {\n\n    }\n\n    function executeContractCall(address _targetContract) public {\n\n    }\n}",
  "sourcePath": "/Users/jeancavallera/Documents/Repositories/ERC725/implementations/contracts/helpers/Executor.sol",
  "compiler": {
    "name": "solc",
    "version": "0.8.3+commit.8d00100c.Emscripten.clang"
  },
  "schemaVersion": "3.4.1",
  "updatedAt": "2021-10-05T22:08:16.487Z",
  "devdoc": {
    "kind": "dev",
    "methods": {},
    "version": 1
  },
  "userdoc": {
    "kind": "user",
    "methods": {},
    "version": 1
  }
}