{
  "contractName": "Calculate165Selectors",
  "abi": [
    {
      "inputs": [],
      "name": "calculateSelectorERC725X",
      "outputs": [
        {
          "internalType": "bytes4",
          "name": "",
          "type": "bytes4"
        }
      ],
      "stateMutability": "pure",
      "type": "function"
    },
    {
      "inputs": [],
      "name": "calculateSelectorERC725Y",
      "outputs": [
        {
          "internalType": "bytes4",
          "name": "",
          "type": "bytes4"
        }
      ],
      "stateMutability": "pure",
      "type": "function"
    },
    {
      "inputs": [],
      "name": "calculateSelectorERC725Account",
      "outputs": [
        {
          "internalType": "bytes4",
          "name": "",
          "type": "bytes4"
        }
      ],
      "stateMutability": "pure",
      "type": "function"
    }
  ],
  "bytecode": "0x608060405234801561001057600080fd5b506101b1806100206000396000f3fe608060405234801561001057600080fd5b50600436106100415760003560e01c8063141678d4146100465780632d9f57cf14610064578063cb875dc414610082575b600080fd5b61004e6100a0565b60405161005b9190610134565b60405180910390f35b61006c6100d5565b6040516100799190610134565b60405180910390f35b61008a6100fd565b6040516100979190610134565b60405180910390f35b600080631626ba7e60e01b636bb56a1460e01b6344c028fe60e01b6314a6e29360e01b634e3e6e9c60e01b1818181891505090565b60007f44c028fe00000000000000000000000000000000000000000000000000000000905090565b60007f5a988c0f00000000000000000000000000000000000000000000000000000000905090565b61012e8161014f565b82525050565b60006020820190506101496000830184610125565b92915050565b60007fffffffff000000000000000000000000000000000000000000000000000000008216905091905056fea26469706673582212209e4867428245b10a8be64639e67ea8a96bf2455bea4af670011b756ff14550d664736f6c63430008030033",
  "immutableReferences": {},
  "source": "// SPDX-License-Identifier: Apache-2.0\npragma solidity ^0.8.0;\nimport \"../ERC725/IERC725X.sol\";\nimport \"../ERC725/IERC725Y.sol\";\nimport \"../ERC725/ERC725Account.sol\";\n\ncontract Calculate165Selectors {\n\n    function calculateSelectorERC725X() public pure returns (bytes4) {\n        return type(IERC725X).interfaceId;\n    }\n\n    function calculateSelectorERC725Y() public pure returns (bytes4) {\n        return type(IERC725Y).interfaceId;\n    }\n\n    function calculateSelectorERC725Account() public pure returns (bytes4) {\n        ERC725Account i;\n\n    // Owner and transferOwnership are left for purpose\n        return i.getData.selector\n        ^ i.setData.selector\n        ^ i.execute.selector\n        ^ i.universalReceiver.selector\n        ^ i.isValidSignature.selector;\n    }\n}\n",
  "sourcePath": "/Users/jeancavallera/Documents/Repositories/ERC725/implementations/contracts/helpers/Calculate165Selectors.sol",
  "compiler": {
    "name": "solc",
    "version": "0.8.3+commit.8d00100c.Emscripten.clang"
  },
  "schemaVersion": "3.4.1",
  "updatedAt": "2021-10-05T22:08:16.473Z",
  "devdoc": {
    "kind": "dev",
    "methods": {},
    "version": 1
  },
  "userdoc": {
    "kind": "user",
    "methods": {},
    "version": 1
  }
}