{
  "contractName": "Counter",
  "abi": [
    {
      "inputs": [],
      "stateMutability": "nonpayable",
      "type": "constructor"
    },
    {
      "stateMutability": "payable",
      "type": "receive"
    },
    {
      "inputs": [],
      "name": "increment",
      "outputs": [],
      "stateMutability": "nonpayable",
      "type": "function"
    },
    {
      "inputs": [],
      "name": "get",
      "outputs": [
        {
          "internalType": "uint256",
          "name": "",
          "type": "uint256"
        }
      ],
      "stateMutability": "view",
      "type": "function"
    }
  ],
  "bytecode": "0x608060405234801561001057600080fd5b506000808190555061018a806100276000396000f3fe60806040526004361061002d5760003560e01c80636d4ce63c14610039578063d09de08a1461006457610034565b3661003457005b600080fd5b34801561004557600080fd5b5061004e61007b565b60405161005b91906100aa565b60405180910390f35b34801561007057600080fd5b50610079610084565b005b60008054905090565b600160005461009391906100c5565b600081905550565b6100a48161011b565b82525050565b60006020820190506100bf600083018461009b565b92915050565b60006100d08261011b565b91506100db8361011b565b9250827fffffffffffffffffffffffffffffffffffffffffffffffffffffffffffffffff038211156101105761010f610125565b5b828201905092915050565b6000819050919050565b7f4e487b7100000000000000000000000000000000000000000000000000000000600052601160045260246000fdfea26469706673582212204a647454bb7251580da4f1ea1db9ec35470b934cfbfd08805c740c6aae996e8d64736f6c63430008030033",
  "immutableReferences": {},
  "source": "// SPDX-License-Identifier: Apache-2.0\npragma solidity ^0.8.0;\n\ncontract Counter {\n    uint count;\n\n    constructor () {\n        count = 0;\n    }\n\n    function increment() public {\n        count = count + 1;\n    }\n\n    function get() public view returns (uint256) {\n        return count;\n    }\n\n    receive() external payable {}\n}\n",
  "sourcePath": "/Users/jeancavallera/Documents/Repositories/ERC725/implementations/contracts/helpers/Counter.sol",
  "compiler": {
    "name": "solc",
    "version": "0.8.3+commit.8d00100c.Emscripten.clang"
  },
  "schemaVersion": "3.4.1",
  "updatedAt": "2021-10-05T22:08:16.474Z",
  "devdoc": {
    "kind": "dev",
    "methods": {},
    "version": 1
  },
  "userdoc": {
    "kind": "user",
    "methods": {},
    "version": 1
  }
}