{
  "contractName": "ERC725AccountInit",
  "abi": [
    {
      "anonymous": false,
      "inputs": [
        {
          "indexed": true,
          "internalType": "address",
          "name": "contractAddress",
          "type": "address"
        }
      ],
      "name": "ContractCreated",
      "type": "event"
    },
    {
      "anonymous": false,
      "inputs": [
        {
          "indexed": true,
          "internalType": "bytes32",
          "name": "key",
          "type": "bytes32"
        },
        {
          "indexed": false,
          "internalType": "bytes",
          "name": "value",
          "type": "bytes"
        }
      ],
      "name": "DataChanged",
      "type": "event"
    },
    {
      "anonymous": false,
      "inputs": [
        {
          "indexed": true,
          "internalType": "uint256",
          "name": "_operation",
          "type": "uint256"
        },
        {
          "indexed": true,
          "internalType": "address",
          "name": "_to",
          "type": "address"
        },
        {
          "indexed": true,
          "internalType": "uint256",
          "name": "_value",
          "type": "uint256"
        },
        {
          "indexed": false,
          "internalType": "bytes",
          "name": "_data",
          "type": "bytes"
        }
      ],
      "name": "Executed",
      "type": "event"
    },
    {
      "anonymous": false,
      "inputs": [
        {
          "indexed": true,
          "internalType": "address",
          "name": "previousOwner",
          "type": "address"
        },
        {
          "indexed": true,
          "internalType": "address",
          "name": "newOwner",
          "type": "address"
        }
      ],
      "name": "OwnershipTransferred",
      "type": "event"
    },
    {
      "anonymous": false,
      "inputs": [
        {
          "indexed": true,
          "internalType": "address",
          "name": "from",
          "type": "address"
        },
        {
          "indexed": true,
          "internalType": "bytes32",
          "name": "typeId",
          "type": "bytes32"
        },
        {
          "indexed": true,
          "internalType": "bytes",
          "name": "returnedValue",
          "type": "bytes"
        },
        {
          "indexed": false,
          "internalType": "bytes",
          "name": "receivedData",
          "type": "bytes"
        }
      ],
      "name": "UniversalReceiver",
      "type": "event"
    },
    {
      "anonymous": false,
      "inputs": [
        {
          "indexed": true,
          "internalType": "address",
          "name": "sender",
          "type": "address"
        },
        {
          "indexed": true,
          "internalType": "uint256",
          "name": "value",
          "type": "uint256"
        }
      ],
      "name": "ValueReceived",
      "type": "event"
    },
    {
      "inputs": [
        {
          "internalType": "bytes32[]",
          "name": "_keys",
          "type": "bytes32[]"
        }
      ],
      "name": "getData",
      "outputs": [
        {
          "internalType": "bytes[]",
          "name": "values",
          "type": "bytes[]"
        }
      ],
      "stateMutability": "view",
      "type": "function"
    },
    {
      "inputs": [
        {
          "internalType": "bytes32",
          "name": "_hash",
          "type": "bytes32"
        },
        {
          "internalType": "bytes",
          "name": "_signature",
          "type": "bytes"
        }
      ],
      "name": "isValidSignature",
      "outputs": [
        {
          "internalType": "bytes4",
          "name": "magicValue",
          "type": "bytes4"
        }
      ],
      "stateMutability": "view",
      "type": "function"
    },
    {
      "inputs": [],
      "name": "owner",
      "outputs": [
        {
          "internalType": "address",
          "name": "",
          "type": "address"
        }
      ],
      "stateMutability": "view",
      "type": "function"
    },
    {
      "inputs": [],
      "name": "renounceOwnership",
      "outputs": [],
      "stateMutability": "nonpayable",
      "type": "function"
    },
    {
      "inputs": [
        {
          "internalType": "bytes4",
          "name": "interfaceId",
          "type": "bytes4"
        }
      ],
      "name": "supportsInterface",
      "outputs": [
        {
          "internalType": "bool",
          "name": "",
          "type": "bool"
        }
      ],
      "stateMutability": "view",
      "type": "function"
    },
    {
      "inputs": [
        {
          "internalType": "address",
          "name": "newOwner",
          "type": "address"
        }
      ],
      "name": "transferOwnership",
      "outputs": [],
      "stateMutability": "nonpayable",
      "type": "function"
    },
    {
      "inputs": [
        {
          "internalType": "bytes32",
          "name": "_typeId",
          "type": "bytes32"
        },
        {
          "internalType": "bytes",
          "name": "_data",
          "type": "bytes"
        }
      ],
      "name": "universalReceiver",
      "outputs": [
        {
          "internalType": "bytes",
          "name": "returnValue",
          "type": "bytes"
        }
      ],
      "stateMutability": "nonpayable",
      "type": "function"
    },
    {
      "stateMutability": "payable",
      "type": "receive"
    },
    {
      "inputs": [
        {
          "internalType": "address",
          "name": "_newOwner",
          "type": "address"
        }
      ],
      "name": "initialize",
      "outputs": [],
      "stateMutability": "nonpayable",
      "type": "function"
    },
    {
      "inputs": [
        {
          "internalType": "uint256",
          "name": "_operation",
          "type": "uint256"
        },
        {
          "internalType": "address",
          "name": "_to",
          "type": "address"
        },
        {
          "internalType": "uint256",
          "name": "_value",
          "type": "uint256"
        },
        {
          "internalType": "bytes",
          "name": "_data",
          "type": "bytes"
        }
      ],
      "name": "execute",
      "outputs": [
        {
          "internalType": "bytes",
          "name": "result",
          "type": "bytes"
        }
      ],
      "stateMutability": "payable",
      "type": "function"
    },
    {
      "inputs": [
        {
          "internalType": "bytes32[]",
          "name": "_keys",
          "type": "bytes32[]"
        },
        {
          "internalType": "bytes[]",
          "name": "_values",
          "type": "bytes[]"
        }
      ],
      "name": "setData",
      "outputs": [],
      "stateMutability": "nonpayable",
      "type": "function"
    }
  ],
  "bytecode": "0x608060405234801561001057600080fd5b50613dd1806100206000396000f3fe6080604052600436106100955760003560e01c80636bb56a14116100595780636bb56a14146101fc578063715018a6146102395780638da5cb5b14610250578063c4d66de81461027b578063f2fde38b146102a4576100e7565b806301ffc9a7146100ec57806314a6e293146101295780631626ba7e1461015257806344c028fe1461018f5780634e3e6e9c146101bf576100e7565b366100e757346100a36102cd565b73ffffffffffffffffffffffffffffffffffffffff167f7e71433ddf847725166244795048ecf3e3f9f35628254ecbf73605666423349360405160405180910390a3005b600080fd5b3480156100f857600080fd5b50610113600480360381019061010e91906129fb565b6102d5565b60405161012091906130cc565b60405180910390f35b34801561013557600080fd5b50610150600480360381019061014b91906128ba565b61034d565b005b34801561015e57600080fd5b50610179600480360381019061017491906129a7565b6103d7565b604051610186919061315c565b60405180910390f35b6101a960048036038101906101a49190612acf565b61053d565b6040516101b6919061319b565b60405180910390f35b3480156101cb57600080fd5b506101e660048036038101906101e19190612879565b6105d3565b6040516101f391906130aa565b60405180910390f35b34801561020857600080fd5b50610223600480360381019061021e919061294f565b6106fe565b604051610230919061319b565b60405180910390f35b34801561024557600080fd5b5061024e6109be565b005b34801561025c57600080fd5b50610265610a46565b604051610272919061304f565b60405180910390f35b34801561028757600080fd5b506102a2600480360381019061029d9190612850565b610a6f565b005b3480156102b057600080fd5b506102cb60048036038101906102c69190612850565b610bb9565b005b600033905090565b60006102e082610cb1565b80610346575060016000837bffffffffffffffffffffffffffffffffffffffffffffffffffffffff19167bffffffffffffffffffffffffffffffffffffffffffffffffffffffff1916815260200190815260200160002060009054906101000a900460ff165b9050919050565b6103556102cd565b73ffffffffffffffffffffffffffffffffffffffff16610373610a46565b73ffffffffffffffffffffffffffffffffffffffff16146103c9576040517f08c379a00000000000000000000000000000000000000000000000000000000081526004016103c0906133a8565b60405180910390fd5b6103d38282610d1b565b5050565b60006103e96103e4610a46565b610da5565b156104c2576104177f1626ba7e000000000000000000000000000000000000000000000000000000006102d5565b6104285763ffffffff60e01b6104bb565b610430610a46565b73ffffffffffffffffffffffffffffffffffffffff16631626ba7e84846040518363ffffffff1660e01b815260040161046a9291906130e7565b60206040518083038186803b15801561048257600080fd5b505afa158015610496573d6000803e3d6000fd5b505050506040513d601f19601f820116820180604052508101906104ba9190612a24565b5b9050610537565b6104cc8383610db2565b73ffffffffffffffffffffffffffffffffffffffff166104ea610a46565b73ffffffffffffffffffffffffffffffffffffffff16146105125763ffffffff60e01b610534565b7f1626ba7e000000000000000000000000000000000000000000000000000000005b90505b92915050565b60606105476102cd565b73ffffffffffffffffffffffffffffffffffffffff16610565610a46565b73ffffffffffffffffffffffffffffffffffffffff16146105bb576040517f08c379a00000000000000000000000000000000000000000000000000000000081526004016105b2906133a8565b60405180910390fd5b6105c88686868686610dd9565b905095945050505050565b6060815167ffffffffffffffff811115610616577f4e487b7100000000000000000000000000000000000000000000000000000000600052604160045260246000fd5b60405190808252806020026020018201604052801561064957816020015b60608152602001906001900390816106345790505b50905060005b82518110156106f8576106a1838281518110610694577f4e487b7100000000000000000000000000000000000000000000000000000000600052603260045260246000fd5b6020026020010151610e6f565b8282815181106106da577f4e487b7100000000000000000000000000000000000000000000000000000000600052603260045260246000fd5b602002602001018190525080806106f0906137d2565b91505061064f565b50919050565b606060003073ffffffffffffffffffffffffffffffffffffffff1673__ERC725Utils___________________________63d177d9c890917f0cfc51aec37c55a4d0b1a65c6255c4bf2fbdf6277f3cc0730c45b828b6db8b4760001b6040518363ffffffff1660e01b81526004016107769291906131bd565b60006040518083038186803b15801561078e57600080fd5b505af41580156107a2573d6000803e3d6000fd5b505050506040513d6000823e3d601f19601f820116820180604052508101906107cb9190612a4d565b90506040518060200160405280600081525091506014815114156109485760006107f6826000610f14565b90508073ffffffffffffffffffffffffffffffffffffffff166301ffc9a77fc2d7bcc1000000000000000000000000000000000000000000000000000000006040518263ffffffff1660e01b8152600401610851919061315c565b60206040518083038186803b15801561086957600080fd5b505afa15801561087d573d6000803e3d6000fd5b505050506040513d601f19601f820116820180604052508101906108a19190612926565b15610946578073ffffffffffffffffffffffffffffffffffffffff1663c2d7bcc16108ca6102cd565b8888886040518563ffffffff1660e01b81526004016108ec949392919061306a565b600060405180830381600087803b15801561090657600080fd5b505af115801561091a573d6000803e3d6000fd5b505050506040513d6000823e3d601f19601f820116820180604052508101906109439190612a4d565b92505b505b816040516109569190613038565b6040518091039020856109676102cd565b73ffffffffffffffffffffffffffffffffffffffff167f8187df79ab47ad16102e7bc8760349a115b3ba9869b8cedd78996f930ac9cac387876040516109ae929190613177565b60405180910390a4509392505050565b6109c66102cd565b73ffffffffffffffffffffffffffffffffffffffff166109e4610a46565b73ffffffffffffffffffffffffffffffffffffffff1614610a3a576040517f08c379a0000000000000000000000000000000000000000000000000000000008152600401610a31906133a8565b60405180910390fd5b610a446000610f8a565b565b60008060009054906101000a900473ffffffffffffffffffffffffffffffffffffffff16905090565b600360019054906101000a900460ff1680610a975750600360009054906101000a900460ff16155b610ad6576040517f08c379a0000000000000000000000000000000000000000000000000000000008152600401610acd90613308565b60405180910390fd5b6000600360019054906101000a900460ff161590508015610b28576001600360016101000a81548160ff0219169083151502179055506001600360006101000a81548160ff0219169083151502179055505b610b318261104e565b610b416363cb749b60e01b61113f565b610b6a7f1626ba7e0000000000000000000000000000000000000000000000000000000061113f565b610b937f6bb56a140000000000000000000000000000000000000000000000000000000061113f565b8015610bb5576000600360016101000a81548160ff0219169083151502179055505b5050565b610bc16102cd565b73ffffffffffffffffffffffffffffffffffffffff16610bdf610a46565b73ffffffffffffffffffffffffffffffffffffffff1614610c35576040517f08c379a0000000000000000000000000000000000000000000000000000000008152600401610c2c906133a8565b60405180910390fd5b600073ffffffffffffffffffffffffffffffffffffffff168173ffffffffffffffffffffffffffffffffffffffff161415610ca5576040517f08c379a0000000000000000000000000000000000000000000000000000000008152600401610c9c90613288565b60405180910390fd5b610cae81610f8a565b50565b60007f01ffc9a7000000000000000000000000000000000000000000000000000000007bffffffffffffffffffffffffffffffffffffffffffffffffffffffff1916827bffffffffffffffffffffffffffffffffffffffffffffffffffffffff1916149050919050565b610d236102cd565b73ffffffffffffffffffffffffffffffffffffffff16610d41610a46565b73ffffffffffffffffffffffffffffffffffffffff1614610d97576040517f08c379a0000000000000000000000000000000000000000000000000000000008152600401610d8e906133a8565b60405180910390fd5b610da18282611214565b5050565b600080823b119050919050565b6000806000610dc18585611306565b91509150610dce81611389565b819250505092915050565b6060610de36102cd565b73ffffffffffffffffffffffffffffffffffffffff16610e01610a46565b73ffffffffffffffffffffffffffffffffffffffff1614610e57576040517f08c379a0000000000000000000000000000000000000000000000000000000008152600401610e4e906133a8565b60405180910390fd5b610e6486868686866116da565b905095945050505050565b6060600260008381526020019081526020016000208054610e8f9061376f565b80601f0160208091040260200160405190810160405280929190818152602001828054610ebb9061376f565b8015610f085780601f10610edd57610100808354040283529160200191610f08565b820191906000526020600020905b815481529060010190602001808311610eeb57829003601f168201915b50505050509050919050565b6000601482610f2391906135f4565b83511015610f66576040517f08c379a0000000000000000000000000000000000000000000000000000000008152600401610f5d906133c8565b60405180910390fd5b60006c01000000000000000000000000836020860101510490508091505092915050565b60008060009054906101000a900473ffffffffffffffffffffffffffffffffffffffff169050816000806101000a81548173ffffffffffffffffffffffffffffffffffffffff021916908373ffffffffffffffffffffffffffffffffffffffff1602179055508173ffffffffffffffffffffffffffffffffffffffff168173ffffffffffffffffffffffffffffffffffffffff167f8be0079c531659141344cd1fd0a4f28419497f9722a3daafe3b4186f6b6457e060405160405180910390a35050565b600360019054906101000a900460ff16806110765750600360009054906101000a900460ff16155b6110b5576040517f08c379a00000000000000000000000000000000000000000000000000000000081526004016110ac90613308565b60405180910390fd5b6000600360019054906101000a900460ff161590508015611107576001600360016101000a81548160ff0219169083151502179055506001600360006101000a81548160ff0219169083151502179055505b61111082611a95565b61111982611be1565b801561113b576000600360016101000a81548160ff0219169083151502179055505b5050565b63ffffffff60e01b817bffffffffffffffffffffffffffffffffffffffffffffffffffffffff191614156111a8576040517f08c379a000000000000000000000000000000000000000000000000000000000815260040161119f906132a8565b60405180910390fd5b6001806000837bffffffffffffffffffffffffffffffffffffffffffffffffffffffff19167bffffffffffffffffffffffffffffffffffffffffffffffffffffffff1916815260200190815260200160002060006101000a81548160ff02191690831515021790555050565b8051825114611258576040517f08c379a000000000000000000000000000000000000000000000000000000000815260040161124f90613408565b60405180910390fd5b60005b8251811015611301576112ee8382815181106112a0577f4e487b7100000000000000000000000000000000000000000000000000000000600052603260045260246000fd5b60200260200101518383815181106112e1577f4e487b7100000000000000000000000000000000000000000000000000000000600052603260045260246000fd5b6020026020010151611d2d565b80806112f9906137d2565b91505061125b565b505050565b6000806041835114156113485760008060006020860151925060408601519150606086015160001a905061133c87828585611d91565b94509450505050611382565b60408351141561137957600080602085015191506040850151905061136e868383611e9e565b935093505050611382565b60006002915091505b9250929050565b600060048111156113c3577f4e487b7100000000000000000000000000000000000000000000000000000000600052602160045260246000fd5b8160048111156113fc577f4e487b7100000000000000000000000000000000000000000000000000000000600052602160045260246000fd5b1415611407576116d7565b60016004811115611441577f4e487b7100000000000000000000000000000000000000000000000000000000600052602160045260246000fd5b81600481111561147a577f4e487b7100000000000000000000000000000000000000000000000000000000600052602160045260246000fd5b14156114bb576040517f08c379a00000000000000000000000000000000000000000000000000000000081526004016114b290613208565b60405180910390fd5b600260048111156114f5577f4e487b7100000000000000000000000000000000000000000000000000000000600052602160045260246000fd5b81600481111561152e577f4e487b7100000000000000000000000000000000000000000000000000000000600052602160045260246000fd5b141561156f576040517f08c379a000000000000000000000000000000000000000000000000000000000815260040161156690613248565b60405180910390fd5b600360048111156115a9577f4e487b7100000000000000000000000000000000000000000000000000000000600052602160045260246000fd5b8160048111156115e2577f4e487b7100000000000000000000000000000000000000000000000000000000600052602160045260246000fd5b1415611623576040517f08c379a000000000000000000000000000000000000000000000000000000000815260040161161a906132c8565b60405180910390fd5b60048081111561165c577f4e487b7100000000000000000000000000000000000000000000000000000000600052602160045260246000fd5b816004811115611695577f4e487b7100000000000000000000000000000000000000000000000000000000600052602160045260246000fd5b14156116d6576040517f08c379a00000000000000000000000000000000000000000000000000000000081526004016116cd90613328565b60405180910390fd5b5b50565b6060838573ffffffffffffffffffffffffffffffffffffffff16877f1f920dbda597d7bf95035464170fa58d0a4b57f13a1c315ace6793b9f63688b88686604051611726929190613177565b60405180910390a460006109c45a61173e919061364a565b905060008714156117a057611799868686868080601f016020809104026020016040519081016040528093929190818152602001838380828437600081840152601f19601f8201169050808301925050505050505084611eec565b9150611a8b565b60018714156118815760006117b3610a46565b90506118048786868080601f016020809104026020016040519081016040528093929190818152602001838380828437600081840152601f19601f8201169050808301925050505050505084611fd7565b92508073ffffffffffffffffffffffffffffffffffffffff16611825610a46565b73ffffffffffffffffffffffffffffffffffffffff161461187b576040517f08c379a000000000000000000000000000000000000000000000000000000000815260040161187290613448565b60405180910390fd5b50611a8a565b60038714156119045760006118da8686868080601f016020809104026020016040519081016040528093929190818152602001838380828437600081840152601f19601f820116905080830192505050505050506120be565b9050806040516020016118ed919061301d565b604051602081830303815290604052925050611a89565b6002871415611a4d57600061196c85858080601f016020809104026020016040519081016040528093929190818152602001838380828437600081840152601f19601f82011690508083019250505050505050602087879050611967919061364a565b612183565b905060006119cf86868080601f016020809104026020016040519081016040528093929190818152602001838380828437600081840152601f19601f8201169050808301925050505050505060006020898990506119ca919061364a565b6121ea565b905060006119de888484612308565b9050806040516020016119f1919061301d565b60405160208183030381529060405294508073ffffffffffffffffffffffffffffffffffffffff167fcf78cf0d6f3d8371e1075c69c492ab4ec5d8cf23a1a239b6a51a1d00be7ca31260405160405180910390a2505050611a88565b6040517f08c379a0000000000000000000000000000000000000000000000000000000008152600401611a7f906133e8565b60405180910390fd5b5b5b5b5095945050505050565b600360019054906101000a900460ff1680611abd5750600360009054906101000a900460ff16155b611afc576040517f08c379a0000000000000000000000000000000000000000000000000000000008152600401611af390613308565b60405180910390fd5b6000600360019054906101000a900460ff161590508015611b4e576001600360016101000a81548160ff0219169083151502179055506001600360006101000a81548160ff0219169083151502179055505b611b56610a46565b73ffffffffffffffffffffffffffffffffffffffff168273ffffffffffffffffffffffffffffffffffffffff1614611b9257611b9182612419565b5b611bbb7f44c028fe0000000000000000000000000000000000000000000000000000000061113f565b8015611bdd576000600360016101000a81548160ff0219169083151502179055505b5050565b600360019054906101000a900460ff1680611c095750600360009054906101000a900460ff16155b611c48576040517f08c379a0000000000000000000000000000000000000000000000000000000008152600401611c3f90613308565b60405180910390fd5b6000600360019054906101000a900460ff161590508015611c9a576001600360016101000a81548160ff0219169083151502179055506001600360006101000a81548160ff0219169083151502179055505b611ca2610a46565b73ffffffffffffffffffffffffffffffffffffffff168273ffffffffffffffffffffffffffffffffffffffff1614611cde57611cdd82612419565b5b611d077f5a988c0f0000000000000000000000000000000000000000000000000000000061113f565b8015611d29576000600360016101000a81548160ff0219169083151502179055505b5050565b80600260008481526020019081526020016000209080519060200190611d54929190612490565b50817fece574603820d07bc9b91f2a932baadf4628aabcb8afba49776529c14a6104b282604051611d85919061319b565b60405180910390a25050565b6000807f7fffffffffffffffffffffffffffffff5d576e7357a4501ddfe92f46681b20a08360001c1115611dcc576000600391509150611e95565b601b8560ff1614158015611de45750601c8560ff1614155b15611df6576000600491509150611e95565b600060018787878760405160008152602001604052604051611e1b9493929190613117565b6020604051602081039080840390855afa158015611e3d573d6000803e3d6000fd5b505050602060405103519050600073ffffffffffffffffffffffffffffffffffffffff168173ffffffffffffffffffffffffffffffffffffffff161415611e8c57600060019250925050611e95565b80600092509250505b94509492505050565b6000806000807f7fffffffffffffffffffffffffffffffffffffffffffffffffffffffffffffff85169150601b8560ff1c019050611ede87828885611d91565b935093505050935093915050565b60606000808673ffffffffffffffffffffffffffffffffffffffff16848787604051611f189190613038565b600060405180830381858888f193505050503d8060008114611f56576040519150601f19603f3d011682016040523d82523d6000602084013e611f5b565b606091505b509150915081611fca57604481511015611f7457600080fd5b60048101905080806020019051810190611f8e9190612a8e565b6040517f08c379a0000000000000000000000000000000000000000000000000000000008152600401611fc191906131e6565b60405180910390fd5b8092505050949350505050565b60606000808573ffffffffffffffffffffffffffffffffffffffff1684866040516120029190613038565b6000604051808303818686f4925050503d806000811461203e576040519150601f19603f3d011682016040523d82523d6000602084013e612043565b606091505b5091509150816120b25760448151101561205c57600080fd5b600481019050808060200190518101906120769190612a8e565b6040517f08c379a00000000000000000000000000000000000000000000000000000000081526004016120a991906131e6565b60405180910390fd5b80925050509392505050565b600081516020830184f09050600073ffffffffffffffffffffffffffffffffffffffff168173ffffffffffffffffffffffffffffffffffffffff16141561213a576040517f08c379a000000000000000000000000000000000000000000000000000000000815260040161213190613368565b60405180910390fd5b8073ffffffffffffffffffffffffffffffffffffffff167fcf78cf0d6f3d8371e1075c69c492ab4ec5d8cf23a1a239b6a51a1d00be7ca31260405160405180910390a292915050565b600060208261219291906135f4565b835110156121d5576040517f08c379a00000000000000000000000000000000000000000000000000000000081526004016121cc90613388565b60405180910390fd5b60008260208501015190508091505092915050565b606081601f836121fa91906135f4565b101561223b576040517f08c379a0000000000000000000000000000000000000000000000000000000008152600401612232906132e8565b60405180910390fd5b818361224791906135f4565b8451101561228a576040517f08c379a000000000000000000000000000000000000000000000000000000000815260040161228190613428565b60405180910390fd5b60608215600081146122ab57604051915060008252602082016040526122fc565b6040519150601f8416801560200281840101858101878315602002848b0101015b818310156122e957805183526020830192506020810190506122cc565b50868552601f19601f8301166040525050505b50809150509392505050565b6000808447101561234e576040517f08c379a000000000000000000000000000000000000000000000000000000000815260040161234590613468565b60405180910390fd5b600083511415612393576040517f08c379a000000000000000000000000000000000000000000000000000000000815260040161238a90613228565b60405180910390fd5b8383516020850187f59050600073ffffffffffffffffffffffffffffffffffffffff168173ffffffffffffffffffffffffffffffffffffffff16141561240e576040517f08c379a000000000000000000000000000000000000000000000000000000000815260040161240590613348565b60405180910390fd5b809150509392505050565b600060149054906101000a900460ff1615612469576040517f08c379a000000000000000000000000000000000000000000000000000000000815260040161246090613268565b60405180910390fd5b6001600060146101000a81548160ff02191690831515021790555061248d81610f8a565b50565b82805461249c9061376f565b90600052602060002090601f0160209004810192826124be5760008555612505565b82601f106124d757805160ff1916838001178555612505565b82800160010185558215612505579182015b828111156125045782518255916020019190600101906124e9565b5b5090506125129190612516565b5090565b5b8082111561252f576000816000905550600101612517565b5090565b6000612546612541846134ad565b613488565b9050808382526020820190508285602086028201111561256557600080fd5b60005b85811015612595578161257b8882612734565b845260208401935060208301925050600181019050612568565b5050509392505050565b60006125b26125ad846134d9565b613488565b9050808382526020820190508260005b858110156125f257813585016125d888826127bd565b8452602084019350602083019250506001810190506125c2565b5050509392505050565b600061260f61260a84613505565b613488565b90508281526020810184848401111561262757600080fd5b61263284828561372d565b509392505050565b600061264d61264884613505565b613488565b90508281526020810184848401111561266557600080fd5b61267084828561373c565b509392505050565b600061268b61268684613536565b613488565b9050828152602081018484840111156126a357600080fd5b6126ae84828561373c565b509392505050565b6000813590506126c581613d28565b92915050565b600082601f8301126126dc57600080fd5b81356126ec848260208601612533565b91505092915050565b600082601f83011261270657600080fd5b813561271684826020860161259f565b91505092915050565b60008151905061272e81613d3f565b92915050565b60008135905061274381613d56565b92915050565b60008135905061275881613d6d565b92915050565b60008151905061276d81613d6d565b92915050565b60008083601f84011261278557600080fd5b8235905067ffffffffffffffff81111561279e57600080fd5b6020830191508360018202830111156127b657600080fd5b9250929050565b600082601f8301126127ce57600080fd5b81356127de8482602086016125fc565b91505092915050565b600082601f8301126127f857600080fd5b815161280884826020860161263a565b91505092915050565b600082601f83011261282257600080fd5b8151612832848260208601612678565b91505092915050565b60008135905061284a81613d84565b92915050565b60006020828403121561286257600080fd5b6000612870848285016126b6565b91505092915050565b60006020828403121561288b57600080fd5b600082013567ffffffffffffffff8111156128a557600080fd5b6128b1848285016126cb565b91505092915050565b600080604083850312156128cd57600080fd5b600083013567ffffffffffffffff8111156128e757600080fd5b6128f3858286016126cb565b925050602083013567ffffffffffffffff81111561291057600080fd5b61291c858286016126f5565b9150509250929050565b60006020828403121561293857600080fd5b60006129468482850161271f565b91505092915050565b60008060006040848603121561296457600080fd5b600061297286828701612734565b935050602084013567ffffffffffffffff81111561298f57600080fd5b61299b86828701612773565b92509250509250925092565b600080604083850312156129ba57600080fd5b60006129c885828601612734565b925050602083013567ffffffffffffffff8111156129e557600080fd5b6129f1858286016127bd565b9150509250929050565b600060208284031215612a0d57600080fd5b6000612a1b84828501612749565b91505092915050565b600060208284031215612a3657600080fd5b6000612a448482850161275e565b91505092915050565b600060208284031215612a5f57600080fd5b600082015167ffffffffffffffff811115612a7957600080fd5b612a85848285016127e7565b91505092915050565b600060208284031215612aa057600080fd5b600082015167ffffffffffffffff811115612aba57600080fd5b612ac684828501612811565b91505092915050565b600080600080600060808688031215612ae757600080fd5b6000612af58882890161283b565b9550506020612b06888289016126b6565b9450506040612b178882890161283b565b935050606086013567ffffffffffffffff811115612b3457600080fd5b612b4088828901612773565b92509250509295509295909350565b6000612b5b8383612c67565b905092915050565b612b6c8161367e565b82525050565b612b83612b7e8261367e565b61381b565b82525050565b6000612b9482613577565b612b9e81856135a5565b935083602082028501612bb085613567565b8060005b85811015612bec5784840389528151612bcd8582612b4f565b9450612bd883613598565b925060208a01995050600181019050612bb4565b50829750879550505050505092915050565b612c0781613690565b82525050565b612c168161369c565b82525050565b612c258161369c565b82525050565b612c34816136a6565b82525050565b6000612c4683856135c7565b9350612c5383858461372d565b612c5c836138cc565b840190509392505050565b6000612c7282613582565b612c7c81856135b6565b9350612c8c81856020860161373c565b612c95816138cc565b840191505092915050565b6000612cab82613582565b612cb581856135c7565b9350612cc581856020860161373c565b612cce816138cc565b840191505092915050565b6000612ce482613582565b612cee81856135d8565b9350612cfe81856020860161373c565b80840191505092915050565b612d1381613709565b82525050565b6000612d248261358d565b612d2e81856135e3565b9350612d3e81856020860161373c565b612d47816138cc565b840191505092915050565b6000612d5f6018836135e3565b9150612d6a826138ea565b602082019050919050565b6000612d826020836135e3565b9150612d8d82613913565b602082019050919050565b6000612da5601f836135e3565b9150612db08261393c565b602082019050919050565b6000612dc86029836135e3565b9150612dd382613965565b604082019050919050565b6000612deb6026836135e3565b9150612df6826139b4565b604082019050919050565b6000612e0e601c836135e3565b9150612e1982613a03565b602082019050919050565b6000612e316022836135e3565b9150612e3c82613a2c565b604082019050919050565b6000612e54600e836135e3565b9150612e5f82613a7b565b602082019050919050565b6000612e77602e836135e3565b9150612e8282613aa4565b604082019050919050565b6000612e9a6022836135e3565b9150612ea582613af3565b604082019050919050565b6000612ebd6019836135e3565b9150612ec882613b42565b602082019050919050565b6000612ee06019836135e3565b9150612eeb82613b6b565b602082019050919050565b6000612f036015836135e3565b9150612f0e82613b94565b602082019050919050565b6000612f266020836135e3565b9150612f3182613bbd565b602082019050919050565b6000612f496015836135e3565b9150612f5482613be6565b602082019050919050565b6000612f6c6014836135e3565b9150612f7782613c0f565b602082019050919050565b6000612f8f6026836135e3565b9150612f9a82613c38565b604082019050919050565b6000612fb26011836135e3565b9150612fbd82613c87565b602082019050919050565b6000612fd56031836135e3565b9150612fe082613cb0565b604082019050919050565b6000612ff8601d836135e3565b915061300382613cff565b602082019050919050565b613017816136fc565b82525050565b60006130298284612b72565b60148201915081905092915050565b60006130448284612cd9565b915081905092915050565b60006020820190506130646000830184612b63565b92915050565b600060608201905061307f6000830187612b63565b61308c6020830186612c0d565b818103604083015261309f818486612c3a565b905095945050505050565b600060208201905081810360008301526130c48184612b89565b905092915050565b60006020820190506130e16000830184612bfe565b92915050565b60006040820190506130fc6000830185612c0d565b818103602083015261310e8184612ca0565b90509392505050565b600060808201905061312c6000830187612c0d565b613139602083018661300e565b6131466040830185612c0d565b6131536060830184612c0d565b95945050505050565b60006020820190506131716000830184612c2b565b92915050565b60006020820190508181036000830152613192818486612c3a565b90509392505050565b600060208201905081810360008301526131b58184612ca0565b905092915050565b60006040820190506131d26000830185612d0a565b6131df6020830184612c1c565b9392505050565b600060208201905081810360008301526132008184612d19565b905092915050565b6000602082019050818103600083015261322181612d52565b9050919050565b6000602082019050818103600083015261324181612d75565b9050919050565b6000602082019050818103600083015261326181612d98565b9050919050565b6000602082019050818103600083015261328181612dbb565b9050919050565b600060208201905081810360008301526132a181612dde565b9050919050565b600060208201905081810360008301526132c181612e01565b9050919050565b600060208201905081810360008301526132e181612e24565b9050919050565b6000602082019050818103600083015261330181612e47565b9050919050565b6000602082019050818103600083015261332181612e6a565b9050919050565b6000602082019050818103600083015261334181612e8d565b9050919050565b6000602082019050818103600083015261336181612eb0565b9050919050565b6000602082019050818103600083015261338181612ed3565b9050919050565b600060208201905081810360008301526133a181612ef6565b9050919050565b600060208201905081810360008301526133c181612f19565b9050919050565b600060208201905081810360008301526133e181612f3c565b9050919050565b6000602082019050818103600083015261340181612f5f565b9050919050565b6000602082019050818103600083015261342181612f82565b9050919050565b6000602082019050818103600083015261344181612fa5565b9050919050565b6000602082019050818103600083015261346181612fc8565b9050919050565b6000602082019050818103600083015261348181612feb565b9050919050565b60006134926134a3565b905061349e82826137a1565b919050565b6000604051905090565b600067ffffffffffffffff8211156134c8576134c761389d565b5b602082029050602081019050919050565b600067ffffffffffffffff8211156134f4576134f361389d565b5b602082029050602081019050919050565b600067ffffffffffffffff8211156135205761351f61389d565b5b613529826138cc565b9050602081019050919050565b600067ffffffffffffffff8211156135515761355061389d565b5b61355a826138cc565b9050602081019050919050565b6000819050602082019050919050565b600081519050919050565b600081519050919050565b600081519050919050565b6000602082019050919050565b600082825260208201905092915050565b600082825260208201905092915050565b600082825260208201905092915050565b600081905092915050565b600082825260208201905092915050565b60006135ff826136f2565b915061360a836136f2565b9250827fffffffffffffffffffffffffffffffffffffffffffffffffffffffffffffffff0382111561363f5761363e61383f565b5b828201905092915050565b6000613655826136f2565b9150613660836136f2565b9250828210156136735761367261383f565b5b828203905092915050565b6000613689826136d2565b9050919050565b60008115159050919050565b6000819050919050565b60007fffffffff0000000000000000000000000000000000000000000000000000000082169050919050565b600073ffffffffffffffffffffffffffffffffffffffff82169050919050565b6000819050919050565b600060ff82169050919050565b60006137148261371b565b9050919050565b6000613726826136d2565b9050919050565b82818337600083830152505050565b60005b8381101561375a57808201518184015260208101905061373f565b83811115613769576000848401525b50505050565b6000600282049050600182168061378757607f821691505b6020821081141561379b5761379a61386e565b5b50919050565b6137aa826138cc565b810181811067ffffffffffffffff821117156137c9576137c861389d565b5b80604052505050565b60006137dd826136f2565b91507fffffffffffffffffffffffffffffffffffffffffffffffffffffffffffffffff8214156138105761380f61383f565b5b600182019050919050565b60006138268261382d565b9050919050565b6000613838826138dd565b9050919050565b7f4e487b7100000000000000000000000000000000000000000000000000000000600052601160045260246000fd5b7f4e487b7100000000000000000000000000000000000000000000000000000000600052602260045260246000fd5b7f4e487b7100000000000000000000000000000000000000000000000000000000600052604160045260246000fd5b6000601f19601f8301169050919050565b60008160601b9050919050565b7f45434453413a20696e76616c6964207369676e61747572650000000000000000600082015250565b7f437265617465323a2062797465636f6465206c656e677468206973207a65726f600082015250565b7f45434453413a20696e76616c6964207369676e6174757265206c656e67746800600082015250565b7f4f776e61626c653a206f776e65722063616e206f6e6c7920626520696e69746960008201527f61746564206f6e63650000000000000000000000000000000000000000000000602082015250565b7f4f776e61626c653a206e6577206f776e657220697320746865207a65726f206160008201527f6464726573730000000000000000000000000000000000000000000000000000602082015250565b7f4552433136353a20696e76616c696420696e7465726661636520696400000000600082015250565b7f45434453413a20696e76616c6964207369676e6174757265202773272076616c60008201527f7565000000000000000000000000000000000000000000000000000000000000602082015250565b7f736c6963655f6f766572666c6f77000000000000000000000000000000000000600082015250565b7f496e697469616c697a61626c653a20636f6e747261637420697320616c72656160008201527f647920696e697469616c697a6564000000000000000000000000000000000000602082015250565b7f45434453413a20696e76616c6964207369676e6174757265202776272076616c60008201527f7565000000000000000000000000000000000000000000000000000000000000602082015250565b7f437265617465323a204661696c6564206f6e206465706c6f7900000000000000600082015250565b7f436f756c64206e6f74206465706c6f7920636f6e747261637400000000000000600082015250565b7f746f427974657333325f6f75744f66426f756e64730000000000000000000000600082015250565b7f4f776e61626c653a2063616c6c6572206973206e6f7420746865206f776e6572600082015250565b7f746f416464726573735f6f75744f66426f756e64730000000000000000000000600082015250565b7f57726f6e67206f7065726174696f6e2074797065000000000000000000000000600082015250565b7f4b657973206c656e677468206e6f7420657175616c20746f2076616c7565732060008201527f6c656e6774680000000000000000000000000000000000000000000000000000602082015250565b7f736c6963655f6f75744f66426f756e6473000000000000000000000000000000600082015250565b7f44656c65676174652063616c6c206973206e6f7420616c6c6f77656420746f2060008201527f6d6f6469667920746865206f776e657221000000000000000000000000000000602082015250565b7f437265617465323a20696e73756666696369656e742062616c616e6365000000600082015250565b613d318161367e565b8114613d3c57600080fd5b50565b613d4881613690565b8114613d5357600080fd5b50565b613d5f8161369c565b8114613d6a57600080fd5b50565b613d76816136a6565b8114613d8157600080fd5b50565b613d8d816136f2565b8114613d9857600080fd5b5056fea2646970667358221220b634b098558bb19b4f5503d64577ca38f7acb1d983ef16e4597ac64bf724115064736f6c63430008030033",
  "immutableReferences": {},
  "source": "// SPDX-License-Identifier: Apache-2.0\npragma solidity ^0.8.0;\n\n// modules\nimport \"./ERC725Init.sol\";\nimport \"./ERC725AccountCore.sol\";\n\n/**\n * @title ERC725Account\n * @dev Bundles ERC725X and ERC725Y, and ERC1271 and allows receiving native tokens.\n *\n *  @author Fabian Vogelsteller <fabian@lukso.network>\n */\n\ncontract ERC725AccountInit is ERC725Init, ERC725AccountCore  {\n\n    function initialize(address _newOwner) virtual override(ERC725Init) public initializer {\n        ERC725Init.initialize(_newOwner);\n\n        _registerInterface(_INTERFACE_ID_ERC725Account);\n        _registerInterface(_INTERFACE_ID_ERC1271);\n        _registerInterface(_INTERFACE_ID_LSP1);\n    }\n\n    function execute(\n        uint256 _operation,\n        address _to,\n        uint256 _value,\n        bytes calldata _data\n    ) public payable virtual override(ERC725XInit,ERC725XCore) onlyOwner returns(bytes memory result) {\n        result = ERC725XInit.execute(_operation,_to,_value,_data);\n    }\n\n    function setData(bytes32[] memory _keys, bytes[] memory _values) public virtual override(ERC725YInit,ERC725YCore) onlyOwner {\n        ERC725YInit.setData(_keys, _values);\n    }\n}\n",
  "sourcePath": "/Users/jeancavallera/Documents/Repositories/ERC725/implementations/contracts/ERC725/ERC725AccountInit.sol",
  "compiler": {
    "name": "solc",
    "version": "0.8.3+commit.8d00100c.Emscripten.clang"
  },
  "schemaVersion": "3.4.1",
  "updatedAt": "2021-10-05T22:08:16.426Z",
  "devdoc": {
    "author": "Fabian Vogelsteller <fabian@lukso.network>",
    "details": "Bundles ERC725X and ERC725Y, and ERC1271 and allows receiving native tokens.",
    "kind": "dev",
    "methods": {
      "getData(bytes32[])": {
        "params": {
          "_keys": "the keys which values to retrieve"
        },
        "returns": {
          "values": "The array of data stored at multiple keys"
        }
      },
      "initialize(address)": {
        "params": {
          "_newOwner": "the owner of the contract."
        }
      },
      "isValidSignature(bytes32,bytes)": {
        "params": {
          "_hash": "hash of the data signed//Arbitrary length data signed on the behalf of address(this)",
          "_signature": "owner's signature(s) of the data"
        }
      },
      "owner()": {
        "details": "Returns the address of the current owner."
      },
      "renounceOwnership()": {
        "details": "Leaves the contract without owner. It will not be possible to call `onlyOwner` functions anymore. Can only be called by the current owner. NOTE: Renouncing ownership will leave the contract without an owner, thereby removing any functionality that is only available to the owner."
      },
      "supportsInterface(bytes4)": {
        "details": "See {IERC165-supportsInterface}."
      },
      "transferOwnership(address)": {
        "details": "Transfers ownership of the contract to a new account (`newOwner`). Can only be called by the current owner."
      }
    },
    "title": "ERC725Account",
    "version": 1
  },
  "userdoc": {
    "kind": "user",
    "methods": {
      "getData(bytes32[])": {
        "notice": "Gets array of data at multiple given `key`"
      },
      "initialize(address)": {
        "notice": "Sets the owner of the contract"
      },
      "isValidSignature(bytes32,bytes)": {
        "notice": "Checks if an owner signed `_data`. ERC1271 interface."
      }
    },
    "version": 1
  }
}