{
  "contractName": "ERC725YWriter",
  "abi": [
    {
      "inputs": [
        {
          "internalType": "address",
          "name": "to",
          "type": "address"
        },
        {
          "internalType": "bytes32[]",
          "name": "_keys",
          "type": "bytes32[]"
        },
        {
          "internalType": "bytes[]",
          "name": "_values",
          "type": "bytes[]"
        }
      ],
      "name": "CallSetData",
      "outputs": [],
      "stateMutability": "nonpayable",
      "type": "function"
    }
  ],
  "bytecode": "0x608060405234801561001057600080fd5b50610482806100206000396000f3fe608060405234801561001057600080fd5b506004361061002b5760003560e01c80631a6c107814610030575b600080fd5b61004a6004803603810190610045919061016d565b61004c565b005b8473ffffffffffffffffffffffffffffffffffffffff166314a6e293858585856040518563ffffffff1660e01b815260040161008b9493929190610307565b600060405180830381600087803b1580156100a557600080fd5b505af11580156100b9573d6000803e3d6000fd5b505050505050505050565b6000813590506100d381610435565b92915050565b60008083601f8401126100eb57600080fd5b8235905067ffffffffffffffff81111561010457600080fd5b60208301915083602082028301111561011c57600080fd5b9250929050565b60008083601f84011261013557600080fd5b8235905067ffffffffffffffff81111561014e57600080fd5b60208301915083602082028301111561016657600080fd5b9250929050565b60008060008060006060868803121561018557600080fd5b6000610193888289016100c4565b955050602086013567ffffffffffffffff8111156101b057600080fd5b6101bc888289016100d9565b9450945050604086013567ffffffffffffffff8111156101db57600080fd5b6101e788828901610123565b92509250509295509295909350565b60006102038484846102da565b90509392505050565b60006102188385610359565b93507f07ffffffffffffffffffffffffffffffffffffffffffffffffffffffffffffff83111561024757600080fd5b602083029250610258838584610415565b82840190509392505050565b6000610270838561036a565b93508360208402850161028284610342565b8060005b878110156102c857848403895261029d828461038c565b6102a88682846101f6565b95506102b38461034c565b935060208b019a505050600181019050610286565b50829750879450505050509392505050565b60006102e6838561037b565b93506102f3838584610415565b6102fc83610424565b840190509392505050565b6000604082019050818103600083015261032281868861020c565b90508181036020830152610337818486610264565b905095945050505050565b6000819050919050565b6000602082019050919050565b600082825260208201905092915050565b600082825260208201905092915050565b600082825260208201905092915050565b600080833560016020038436030381126103a557600080fd5b83810192508235915060208301925067ffffffffffffffff8211156103c957600080fd5b6001820236038413156103db57600080fd5b509250929050565b60006103ee826103f5565b9050919050565b600073ffffffffffffffffffffffffffffffffffffffff82169050919050565b82818337600083830152505050565b6000601f19601f8301169050919050565b61043e816103e3565b811461044957600080fd5b5056fea26469706673582212202f011badf489432718b900c911f7eacc4c0d260e3ade5ac7f250c095e7829c2164736f6c63430008030033",
  "immutableReferences": {},
  "source": "// SPDX-License-Identifier: Apache-2.0\npragma solidity ^0.8.0;\n\nimport \"../ERC725/IERC725Y.sol\";\n\ncontract ERC725YWriter {\n\n    function CallSetData(address to, bytes32[] calldata _keys, bytes[] calldata _values)\n        public\n    {\n        IERC725Y(to).setData(_keys, _values);\n    }\n\n}",
  "sourcePath": "/Users/jeancavallera/Documents/Repositories/ERC725/implementations/contracts/helpers/ERC725YWriter.sol",
  "compiler": {
    "name": "solc",
    "version": "0.8.3+commit.8d00100c.Emscripten.clang"
  },
  "schemaVersion": "3.4.1",
  "updatedAt": "2021-10-05T22:08:16.484Z",
  "devdoc": {
    "kind": "dev",
    "methods": {},
    "version": 1
  },
  "userdoc": {
    "kind": "user",
    "methods": {},
    "version": 1
  }
}