{
  "contractName": "ReturnTest",
  "abi": [
    {
      "inputs": [
        {
          "internalType": "string",
          "name": "error",
          "type": "string"
        }
      ],
      "name": "functionThatRevertsWithError",
      "outputs": [],
      "stateMutability": "pure",
      "type": "function"
    },
    {
      "inputs": [
        {
          "internalType": "string[]",
          "name": "_s1",
          "type": "string[]"
        },
        {
          "internalType": "string[]",
          "name": "_s2",
          "type": "string[]"
        }
      ],
      "name": "returnSomeStrings",
      "outputs": [
        {
          "internalType": "string[]",
          "name": "",
          "type": "string[]"
        },
        {
          "internalType": "string[]",
          "name": "",
          "type": "string[]"
        }
      ],
      "stateMutability": "pure",
      "type": "function"
    },
    {
      "inputs": [
        {
          "internalType": "bytes[]",
          "name": "_someData",
          "type": "bytes[]"
        },
        {
          "internalType": "bytes[]",
          "name": "_someData1",
          "type": "bytes[]"
        },
        {
          "internalType": "bytes[]",
          "name": "_someData2",
          "type": "bytes[]"
        }
      ],
      "name": "returnSomeBytes",
      "outputs": [
        {
          "internalType": "bytes[]",
          "name": "",
          "type": "bytes[]"
        },
        {
          "internalType": "bytes[]",
          "name": "",
          "type": "bytes[]"
        },
        {
          "internalType": "bytes[]",
          "name": "",
          "type": "bytes[]"
        }
      ],
      "stateMutability": "pure",
      "type": "function"
    },
    {
      "inputs": [
        {
          "components": [
            {
              "internalType": "string",
              "name": "name",
              "type": "string"
            },
            {
              "internalType": "uint256",
              "name": "age",
              "type": "uint256"
            }
          ],
          "internalType": "struct ReturnTest.Boy[]",
          "name": "_someData",
          "type": "tuple[]"
        },
        {
          "components": [
            {
              "internalType": "bool",
              "name": "single",
              "type": "bool"
            },
            {
              "internalType": "uint256",
              "name": "age",
              "type": "uint256"
            }
          ],
          "internalType": "struct ReturnTest.Girl[]",
          "name": "_someData1",
          "type": "tuple[]"
        }
      ],
      "name": "functionThatReturnsCiviliensAndWarriors",
      "outputs": [
        {
          "components": [
            {
              "internalType": "string",
              "name": "name",
              "type": "string"
            },
            {
              "internalType": "uint256",
              "name": "age",
              "type": "uint256"
            }
          ],
          "internalType": "struct ReturnTest.Boy[]",
          "name": "",
          "type": "tuple[]"
        },
        {
          "components": [
            {
              "internalType": "bool",
              "name": "single",
              "type": "bool"
            },
            {
              "internalType": "uint256",
              "name": "age",
              "type": "uint256"
            }
          ],
          "internalType": "struct ReturnTest.Girl[]",
          "name": "",
          "type": "tuple[]"
        }
      ],
      "stateMutability": "pure",
      "type": "function"
    }
  ],
  "bytecode": "0x608060405234801561001057600080fd5b50610ead806100206000396000f3fe608060405234801561001057600080fd5b506004361061004c5760003560e01c80633462123514610051578063354a43191461006d578063c7d483611461009f578063d1e6cedc146100d0575b600080fd5b61006b600480360381019061006691906106b9565b610101565b005b6100876004803603810190610082919061054a565b61013e565b60405161009693929190610a40565b60405180910390f35b6100b960048036038101906100b491906105e1565b610155565b6040516100c7929190610a8c565b60405180910390f35b6100ea60048036038101906100e5919061064d565b610165565b6040516100f8929190610ac3565b60405180910390f35b806040517f08c379a00000000000000000000000000000000000000000000000000000000081526004016101359190610afa565b60405180910390fd5b606080606085858592509250925093509350939050565b6060808383915091509250929050565b6060808383915091509250929050565b600061018861018384610b41565b610b1c565b9050808382526020820190508260005b858110156101c857813585016101ae8882610431565b845260208401935060208301925050600181019050610198565b5050509392505050565b60006101e56101e084610b6d565b610b1c565b9050808382526020820190508260005b85811015610225578135850161020b888261045b565b8452602084019350602083019250506001810190506101f5565b5050509392505050565b600061024261023d84610b99565b610b1c565b9050808382526020820190508260005b8581101561028257813585016102688882610485565b845260208401935060208301925050600181019050610252565b5050509392505050565b600061029f61029a84610bc5565b610b1c565b905080838252602082019050828560408602820111156102be57600080fd5b60005b858110156102ee57816102d488826104e9565b8452602084019350604083019250506001810190506102c1565b5050509392505050565b600061030b61030684610bf1565b610b1c565b90508281526020810184848401111561032357600080fd5b61032e848285610d96565b509392505050565b600061034961034484610c22565b610b1c565b90508281526020810184848401111561036157600080fd5b61036c848285610d96565b509392505050565b600082601f83011261038557600080fd5b8135610395848260208601610175565b91505092915050565b600082601f8301126103af57600080fd5b81356103bf8482602086016101d2565b91505092915050565b600082601f8301126103d957600080fd5b81356103e984826020860161022f565b91505092915050565b600082601f83011261040357600080fd5b813561041384826020860161028c565b91505092915050565b60008135905061042b81610e49565b92915050565b600082601f83011261044257600080fd5b81356104528482602086016102f8565b91505092915050565b600082601f83011261046c57600080fd5b813561047c848260208601610336565b91505092915050565b60006040828403121561049757600080fd5b6104a16040610b1c565b9050600082013567ffffffffffffffff8111156104bd57600080fd5b6104c98482850161045b565b60008301525060206104dd84828501610535565b60208301525092915050565b6000604082840312156104fb57600080fd5b6105056040610b1c565b905060006105158482850161041c565b600083015250602061052984828501610535565b60208301525092915050565b60008135905061054481610e60565b92915050565b60008060006060848603121561055f57600080fd5b600084013567ffffffffffffffff81111561057957600080fd5b61058586828701610374565b935050602084013567ffffffffffffffff8111156105a257600080fd5b6105ae86828701610374565b925050604084013567ffffffffffffffff8111156105cb57600080fd5b6105d786828701610374565b9150509250925092565b600080604083850312156105f457600080fd5b600083013567ffffffffffffffff81111561060e57600080fd5b61061a8582860161039e565b925050602083013567ffffffffffffffff81111561063757600080fd5b6106438582860161039e565b9150509250929050565b6000806040838503121561066057600080fd5b600083013567ffffffffffffffff81111561067a57600080fd5b610686858286016103c8565b925050602083013567ffffffffffffffff8111156106a357600080fd5b6106af858286016103f2565b9150509250929050565b6000602082840312156106cb57600080fd5b600082013567ffffffffffffffff8111156106e557600080fd5b6106f18482850161045b565b91505092915050565b6000610706838361091a565b905092915050565b600061071a8383610953565b905092915050565b600061072e83836109c5565b905092915050565b60006107428383610a02565b60408301905092915050565b600061075982610c93565b6107638185610d09565b93508360208202850161077585610c53565b8060005b858110156107b1578484038952815161079285826106fa565b945061079d83610cd5565b925060208a01995050600181019050610779565b50829750879550505050505092915050565b60006107ce82610c9e565b6107d88185610d1a565b9350836020820285016107ea85610c63565b8060005b858110156108265784840389528151610807858261070e565b945061081283610ce2565b925060208a019950506001810190506107ee565b50829750879550505050505092915050565b600061084382610ca9565b61084d8185610d2b565b93508360208202850161085f85610c73565b8060005b8581101561089b578484038952815161087c8582610722565b945061088783610cef565b925060208a01995050600181019050610863565b50829750879550505050505092915050565b60006108b882610cb4565b6108c28185610d3c565b93506108cd83610c83565b8060005b838110156108fe5781516108e58882610736565b97506108f083610cfc565b9250506001810190506108d1565b5085935050505092915050565b61091481610d80565b82525050565b600061092582610cbf565b61092f8185610d4d565b935061093f818560208601610da5565b61094881610e38565b840191505092915050565b600061095e82610cca565b6109688185610d5e565b9350610978818560208601610da5565b61098181610e38565b840191505092915050565b600061099782610cca565b6109a18185610d6f565b93506109b1818560208601610da5565b6109ba81610e38565b840191505092915050565b600060408301600083015184820360008601526109e28282610953565b91505060208301516109f76020860182610a31565b508091505092915050565b604082016000820151610a18600085018261090b565b506020820151610a2b6020850182610a31565b50505050565b610a3a81610d8c565b82525050565b60006060820190508181036000830152610a5a818661074e565b90508181036020830152610a6e818561074e565b90508181036040830152610a82818461074e565b9050949350505050565b60006040820190508181036000830152610aa681856107c3565b90508181036020830152610aba81846107c3565b90509392505050565b60006040820190508181036000830152610add8185610838565b90508181036020830152610af181846108ad565b90509392505050565b60006020820190508181036000830152610b14818461098c565b905092915050565b6000610b26610b37565b9050610b328282610dd8565b919050565b6000604051905090565b600067ffffffffffffffff821115610b5c57610b5b610e09565b5b602082029050602081019050919050565b600067ffffffffffffffff821115610b8857610b87610e09565b5b602082029050602081019050919050565b600067ffffffffffffffff821115610bb457610bb3610e09565b5b602082029050602081019050919050565b600067ffffffffffffffff821115610be057610bdf610e09565b5b602082029050602081019050919050565b600067ffffffffffffffff821115610c0c57610c0b610e09565b5b610c1582610e38565b9050602081019050919050565b600067ffffffffffffffff821115610c3d57610c3c610e09565b5b610c4682610e38565b9050602081019050919050565b6000819050602082019050919050565b6000819050602082019050919050565b6000819050602082019050919050565b6000819050602082019050919050565b600081519050919050565b600081519050919050565b600081519050919050565b600081519050919050565b600081519050919050565b600081519050919050565b6000602082019050919050565b6000602082019050919050565b6000602082019050919050565b6000602082019050919050565b600082825260208201905092915050565b600082825260208201905092915050565b600082825260208201905092915050565b600082825260208201905092915050565b600082825260208201905092915050565b600082825260208201905092915050565b600082825260208201905092915050565b60008115159050919050565b6000819050919050565b82818337600083830152505050565b60005b83811015610dc3578082015181840152602081019050610da8565b83811115610dd2576000848401525b50505050565b610de182610e38565b810181811067ffffffffffffffff82111715610e0057610dff610e09565b5b80604052505050565b7f4e487b7100000000000000000000000000000000000000000000000000000000600052604160045260246000fd5b6000601f19601f8301169050919050565b610e5281610d80565b8114610e5d57600080fd5b50565b610e6981610d8c565b8114610e7457600080fd5b5056fea2646970667358221220d091fde79b1879185282c50b9a7283f042ee52f518542dd5ccd24b034a4eac7664736f6c63430008030033",
  "immutableReferences": {},
  "source": "// SPDX-License-Identifier: Apache-2.0\npragma solidity ^0.8.0;\n\ncontract ReturnTest {\n\n    struct Boy{\n        string name;\n        uint256 age;\n    }\n\n    struct Girl{\n        bool single;\n        uint256 age;\n    }\n\n    function functionThatRevertsWithError(string memory error) external pure {\n        revert(error);\n    }\n\n    function returnSomeStrings(string[] memory _s1, string[] memory _s2) public pure returns(string[] memory, string[] memory){\n        return (_s1,_s2);\n    }\n\n    function returnSomeBytes(bytes[] memory _someData,bytes[] memory _someData1,bytes[] memory _someData2) public pure returns(bytes[] memory,bytes[] memory,bytes[] memory) {\n        return (_someData,_someData1,_someData2);\n    }\n\n    function functionThatReturnsCiviliensAndWarriors(Boy[] memory _someData,Girl[] memory _someData1) public pure returns(Boy[] memory, Girl[] memory) {\n        return (_someData,_someData1);\n    }\n    \n}",
  "sourcePath": "/Users/jeancavallera/Documents/Repositories/ERC725/implementations/contracts/helpers/Return.sol",
  "compiler": {
    "name": "solc",
    "version": "0.8.3+commit.8d00100c.Emscripten.clang"
  },
  "schemaVersion": "3.4.1",
  "updatedAt": "2021-10-05T22:08:16.493Z",
  "devdoc": {
    "kind": "dev",
    "methods": {},
    "version": 1
  },
  "userdoc": {
    "kind": "user",
    "methods": {},
    "version": 1
  }
}